:020000040800F2
:10000000005000202D3C00081D3A0008253A000849
:100010002D3A0008353A00083D3A0008000000007B
:10002000000000000000000000000000453A000849
:10003000513A0008000000005D3A0008693A0008E3
:10004000753C0008753C0008753C0008753C0008CC
:10005000753C0008753C0008753C0008753C0008BC
:10006000753C0008753C0008753C0008753C0008AC
:10007000753C0008753A0008753C0008893A00088C
:10008000753C0008753C0008753C0008753C00088C
:10009000753C0008753C0008753C0008753C00087C
:1000A000753C0008753C0008753C0008753C00086C
:1000B000753C0008753C0008753C0008753C00085C
:1000C000753C0008753C0008753C0008753C00084C
:1000D000753C0008753C0008753C0008753C00083C
:1000E000753C0008753C0008753C000800000000E5
:1000F0000000000000000000000000000000000000
:0C01000000000000000000005FF808F1A3
:1001100010B5054C237833B9044B13B10448AFF341
:1001200000800123237010BD680000200000000043
:10013000DC72000808B5034B1BB103490348AFF359
:10014000008008BD000000006C000020DC72000888
:1001500081F0004102E000BF83F0004330B54FEA78
:1001600041044FEA430594EA050F08BF90EA020FE5
:100170001FBF54EA000C55EA020C7FEA645C7FEA78
:10018000655C00F0E2804FEA5454D4EB5555B8BF9B
:100190006D420CDD2C4480EA020281EA030382EA0C
:1001A000000083EA010180EA020281EA0303362D9E
:1001B00088BF30BD11F0004F4FEA01314FF4801C71
:1001C0004CEA113102D0404261EB410113F0004F83
:1001D0004FEA03334CEA133302D0524263EB43033A
:1001E00094EA050F00F0A780A4F10104D5F1200ED8
:1001F0000DDB02FA0EFC22FA05F2801841F1000133
:1002000003FA0EF2801843FA05F359410EE0A5F106
:1002100020050EF1200E012A03FA0EFC28BF4CF037
:10022000020C43FA05F3C01851EBE37101F00045ED
:1002300007D54FF0000EDCF1000C7EEB00006EEBFA
:100240000101B1F5801F1BD3B1F5001F0CD3490884
:100250005FEA30004FEA3C0C04F101044FEA4452DB
:1002600012F5800F80F09A80BCF1004F08BF5FEA62
:10027000500C50F1000041EB045141EA050130BD42
:100280005FEA4C0C404141EB0101013C28BFB1F554
:10029000801FE9D291F0000F04BF01460020B1FA9F
:1002A00081F308BF2033A3F10B03B3F120020CDA72
:1002B0000C3208DD02F1140CC2F10C0201FA0CF050
:1002C00021FA02F10CE002F11402D8BFC2F1200CB5
:1002D00001FA02F120FA0CFCDCBF41EA0C0190406B
:1002E000E41AA2BF01EB0451294330BD6FEA0404B4
:1002F0001F3C1CDA0C340EDC04F11404C4F120029F
:1003000020FA04F001FA02F340EA030021FA04F3B0
:1003100045EA030130BDC4F10C04C4F1200220FA07
:1003200002F001FA04F340EA0300294630BD21FA45
:1003300004F0294630BD94F0000F83F4801306BF0B
:1003400081F480110134013D4EE77FEA645C18BFFF
:100350007FEA655C29D094EA050F08BF90EA020F96
:1003600005D054EA000C04BF1946104630BD91EA8E
:10037000030F1EBF0021002030BD5FEA545C05D191
:100380004000494128BF41F0004130BD14F58004D0
:100390003CBF01F5801130BD01F0004545F0FE4144
:1003A00041F470014FF0000030BD7FEA645C1ABF79
:1003B000194610467FEA655C1CBF0B46024650EAB0
:1003C000013406BF52EA033591EA030F41F40021DC
:1003D00030BD00BF90F0000F04BF0021704730B562
:1003E0004FF4806404F132044FF000054FF0000137
:1003F00050E700BF90F0000F04BF0021704730B5F8
:100400004FF4806404F1320410F0004548BF4042CC
:100410004FF000013EE700BF42004FEAE2014FEA21
:1004200031014FEA02701FBF12F07F4393F07F4FFC
:1004300081F06051704732F07F4208BF704793F0FF
:100440007F4F04BF41F40021704730B54FF4607412
:1004500001F0004521F000411CE700BF50EA010215
:1004600008BF704730B54FF000050AE050EA0102BE
:1004700008BF704730B511F0004502D5404261EB2E
:1004800041014FF4806404F132045FEA915C3FF46F
:10049000D8AE4FF003025FEADC0C18BF03325FEA0C
:1004A000DC0C18BF033202EBDC02C2F1200300FABD
:1004B00003FC20FA02F001FA03FE40EA0E0021FAE2
:1004C00002F11444BDE600BF70B54FF0FF0C4CF4D0
:1004D000E06C1CEA11541DBF1CEA135594EA0C0F82
:1004E00095EA0C0F00F0DEF82C4481EA030621EABD
:1004F0004C5123EA4C5350EA013518BF52EA0335F8
:1005000041F4801143F4801338D0A0FB02CE4FF0A9
:100510000005E1FB02E506F00042E0FB03E54FF0D9
:100520000006E1FB03569CF0000F18BF4EF0010ED1
:10053000A4F1FF04B6F5007F64F5407404D25FEACD
:100540004E0E6D4146EB060642EAC62141EA555180
:100550004FEAC52040EA5E504FEACE2EB4F1FD0CC2
:1005600088BFBCF5E06F1ED8BEF1004F08BF5FEA40
:10057000500E50F1000041EB045170BD06F00046F2
:1005800046EA010140EA020081EA0301B4EB5C049F
:10059000C2BFD4EB0C0541EA045170BD41F4801197
:1005A0004FF0000E013C00F3AB8014F1360FDEBFBC
:1005B000002001F0004170BDC4F10004203C35DA98
:1005C0000C341BDC04F11404C4F1200500FA05F31B
:1005D00020FA04F001FA05F240EA020001F00042BC
:1005E00021F0004110EBD37021FA04F642EB060132
:1005F0005EEA430E08BF20EAD37070BDC4F10C045C
:10060000C4F1200500FA04F320FA05F001FA04F21F
:1006100040EA020001F0004110EBD37041F100010B
:100620005EEA430E08BF20EAD37070BDC4F1200516
:1006300000FA05F24EEA020E20FA04F301FA05F27E
:1006400043EA020321FA04F001F0004121FA04F226
:1006500020EA020000EBD3705EEA430E08BF20EAF6
:10066000D37070BD94F0000F0FD101F00046400030
:1006700041EB010111F4801F08BF013CF7D041EAB2
:10068000060195F0000F18BF704703F000465200B6
:1006900043EB030313F4801F08BF013DF7D043EA87
:1006A0000603704794EA0C0F0CEA135518BF95EA3D
:1006B0000C0F0CD050EA410618BF52EA4306D1D1C4
:1006C00081EA030101F000414FF0000070BD50EAE3
:1006D000410606BF1046194652EA430619D094EA6D
:1006E0000C0F02D150EA013613D195EA0C0F05D157
:1006F00052EA03361CBF104619460AD181EA0301AB
:1007000001F0004141F0FE4141F470014FF0000062
:1007100070BD41F0FE4141F4780170BD70B54FF0FD
:10072000FF0C4CF4E06C1CEA11541DBF1CEA13557D
:1007300094EA0C0F95EA0C0F00F0A7F8A4EB05045F
:1007400081EA030E52EA03354FEA013100F0888056
:100750004FEA03334FF0805545EA131343EA12631F
:100760004FEA022245EA111545EA10654FEA0026D4
:100770000EF000419D4208BF964244F1FD0404F58D
:10078000407402D25B084FEA3202B61A65EB0305E9
:100790005B084FEA32024FF480104FF4002CB6EBA6
:1007A000020E75EB030E22BFB61A754640EA0C0026
:1007B0005B084FEA3202B6EB020E75EB030E22BF66
:1007C000B61A754640EA5C005B084FEA3202B6EBA7
:1007D000020E75EB030E22BFB61A754640EA9C0066
:1007E0005B084FEA3202B6EB020E75EB030E22BF36
:1007F000B61A754640EADC0055EA060E18D04FEAF4
:10080000051545EA16754FEA06164FEAC30343EA93
:1008100052734FEAC2025FEA1C1CC0D111F4801F60
:100820000BD141EA00014FF000004FF0004CB6E759
:1008300011F4801F04BF01430020B4F1FD0C88BFF8
:10084000BCF5E06F3FF6AFAEB5EB030C04BFB6EB03
:10085000020C5FEA500C50F1000041EB045170BDF6
:100860000EF0004E4EEA113114EB5C04C2BFD4EB23
:100870000C0541EA045170BD41F480114FF0000EA7
:10088000013C90E645EA060E8DE60CEA135594EA23
:100890000C0F08BF95EA0C0F3FF43BAF94EA0C0F26
:1008A0000AD150EA01347FF434AF95EA0C0F7FF49B
:1008B00025AF104619462CE795EA0C0F06D152EAEF
:1008C00003353FF4FDAE1046194622E750EA4106D3
:1008D00018BF52EA43067FF4C5AE50EA41047FF4E4
:1008E0000DAF52EA43057FF4EBAE12E74FEA410247
:1008F00012F5001215D211D56FF47873B3EB625272
:1009000012D94FEAC12343F0004343EA505311F098
:10091000004F23FA02F018BF404270474FF000002A
:10092000704750EA013005D111F0004008BF6FF068
:10093000004070474FF00000704700BF80F000405B
:1009400002E000BF81F0004142001FBF5FEA4103A7
:1009500092EA030F7FEA226C7FEA236C6AD04FEAA7
:100960001262D2EB1363C1BFD218414048404140EC
:10097000B8BF5B42192B88BF704710F0004F40F49E
:10098000000020F07F4018BF404211F0004F41F4BA
:10099000000121F07F4118BF494292EA030F3FD086
:1009A000A2F1010241FA03FC10EB0C00C3F1200399
:1009B00001FA03F100F0004302D5494260EB400028
:1009C000B0F5000F13D3B0F1807F06D340084FEA93
:1009D000310102F10102FE2A51D2B1F1004F40EB88
:1009E000C25008BF20F0010040EA030070474900F0
:1009F00040EB0000013A28BFB0F5000FEDD2B0FA8D
:100A000080FCACF1080CB2EB0C0200FA0CF0AABFAF
:100A100000EBC25052421843BCBFD040184370474D
:100A200092F0000F81F4000106BF80F40000013253
:100A3000013BB5E74FEA41037FEA226C18BF7FEA2A
:100A4000236C21D092EA030F04D092F0000F08BF6C
:100A50000846704790EA010F1CBF0020704712F053
:100A60007F4F04D1400028BF40F00040704712F192
:100A700000723CBF00F50000704700F0004343F0F7
:100A8000FE4040F4000070477FEA226216BF08462D
:100A90007FEA23630146420206BF5FEA412390EAF0
:100AA000010F40F4800070474FF0000304E000BFE6
:100AB00010F0004348BF40425FEA000C08BF704797
:100AC00043F0964301464FF000001CE050EA01025B
:100AD00008BF70474FF000030AE000BF50EA010270
:100AE00008BF704711F0004302D5404261EB41015D
:100AF0005FEA010C02BF84460146002043F0B64382
:100B000008BFA3F18053A3F50003BCFA8CF2083AA6
:100B1000A3EBC25310DB01FA02FC634400FA02FCAF
:100B2000C2F12002BCF1004F20FA02F243EB0200B6
:100B300008BF20F00100704702F1200201FA02FC18
:100B4000C2F1200250EA4C0021FA02F243EB02000B
:100B500008BF20EADC7070474FF0FF0C1CEAD0524F
:100B60001EBF1CEAD15392EA0C0F93EA0C0F6FD010
:100B70001A4480EA010C400218BF5FEA41211ED0EE
:100B80004FF0006343EA501043EA5111A0FB0131DA
:100B90000CF00040B1F5000F3EBF490041EAD371AF
:100BA0005B0040EA010062F17F02FD2A1DD8B3F12B
:100BB000004F40EBC25008BF20F00100704790F09A
:100BC000000F0CF0004C08BF49024CEA502040EAEC
:100BD00051207F3AC2BFD2F1FF0340EAC2507047B2
:100BE00040F400004FF00003013A5DDC12F1190FF0
:100BF000DCBF00F000407047C2F10002410021FA62
:100C000002F1C2F1200200FA02FC5FEA310040F179
:100C1000000053EA4C0308BF20EADC70704792F0F2
:100C2000000F00F0004C02BF400010F4000F013A2A
:100C3000F9D040EA0C0093F0000F01F0004C02BF25
:100C4000490011F4000F013BF9D041EA0C018FE794
:100C50000CEAD15392EA0C0F18BF93EA0C0F0AD09A
:100C600030F0004C18BF31F0004CD8D180EA0100C0
:100C700000F00040704790F0000F17BF90F0004F59
:100C8000084691F0000F91F0004F14D092EA0C0F3B
:100C900001D142020FD193EA0C0F03D14B0218BFCE
:100CA000084608D180EA010000F0004040F0FE4014
:100CB00040F40000704740F0FE4040F440007047B0
:100CC0004FF0FF0C1CEAD0521EBF1CEAD15392EA2F
:100CD0000C0F93EA0C0F69D0A2EB030280EA010C1F
:100CE00049024FEA402037D04FF0805343EA1111B8
:100CF00043EA10130CF000408B4238BF5B0042F116
:100D00007D024FF4000C8B4224BF5B1A40EA0C00BA
:100D1000B3EB510F24BFA3EB510340EA5C00B3EBEC
:100D2000910F24BFA3EB910340EA9C00B3EBD10FDA
:100D300024BFA3EBD10340EADC001B0118BF5FEA2C
:100D40001C1CE0D1FD2A3FF650AF8B4240EBC25055
:100D500008BF20F0010070470CF0004C4CEA502016
:100D60007F32C2BFD2F1FF0340EAC250704740F465
:100D700000004FF00003013A37E792F0000F00F057
:100D8000004C02BF400010F4000F013AF9D040EAD5
:100D90000C0093F0000F01F0004C02BF490011F469
:100DA000000F013BF9D041EA0C0195E70CEAD15361
:100DB00092EA0C0F08D142027FF47DAF93EA0C0F48
:100DC0007FF470AF084676E793EA0C0F04D14B022C
:100DD0003FF44CAF08466EE730F0004C18BF31F0DE
:100DE000004CCAD130F000427FF45CAF31F00043D8
:100DF0007FF43CAF5FE700BF4FF0FF3C06E000BF71
:100E00004FF0010C02E000BF4FF0010C4DF804CD93
:100E10004FEA40024FEA41037FEA226C18BF7FEAA3
:100E2000236C11D001B052EA530C18BF90EA010FA5
:100E300058BFB2EB030088BFC81738BF6FEAE17034
:100E400018BF40F0010070477FEA226C02D15FEAD0
:100E5000402C05D17FEA236CE4D15FEA412CE1D03C
:100E60005DF8040B704700BF844608466146FFE703
:100E70000FB5FFF7C9FF002848BF10F1000F0FBDE5
:100E80004DF808EDFFF7F4FF0CBF012000205DF8DE
:100E900008FB00BF4DF808EDFFF7EAFF34BF012063
:100EA00000205DF808FB00BF4DF808EDFFF7E0FFFC
:100EB00094BF012000205DF808FB00BF4DF808ED4D
:100EC000FFF7D2FF94BF012000205DF808FB00BFB0
:100ED0004DF808EDFFF7C8FF34BF012000205DF892
:100EE00008FB00BF4FEA40024FEA41037FEA226C51
:100EF00002D15FEA402C08D17FEA236C02D15FEA7D
:100F0000412C02D14FF0000070474FF001007047B4
:100F10004FEA4002B2F1FE4F0FD34FF09E03B3EB06
:100F200012620DD94FEA002343F0004310F0004F46
:100F300023FA02F018BF404270474FF0000070479C
:100F400012F1610F01D1420205D110F0004008BF3B
:100F50006FF0004070474FF00000704742000ED223
:100F6000B2F1FE4F0BD34FF09E03B3EB126209D4E4
:100F70004FEA002343F0004323FA02F070474FF09A
:100F80000000704712F1610F01D1420202D14FF00F
:100F9000FF3070474FF00000704700BF80B584B04D
:100FA00000AFF860084611461A4603467B810B469F
:100FB0003B811346FB8079893A89FB88F86800F009
:100FC000B7FE00BF1037BD4680BD80B584B000AF0E
:100FD000F860084611461A4603467B810B463B8162
:100FE0001346FB80FB88B7F90820B7F90A10F868A8
:100FF000FFF7D4FF00BF1037BD4680BD80B58AB073
:1010000000AFF860084611461A4603467B810B463E
:101010003B811346FB80B7F93020B7F90830D31A6B
:1010200083EAE372A2EBE372B7F90610B7F90A306C
:10103000CB1A002BB8BF5B429A42CCBF01230023DE
:10104000DBB2BB84B7F92430002B0BD07B897B84C7
:101050003B897B817B8C3B81FB883B843B8EFB8087
:101060003B8C3B86B7F90A20B7F906309A420BDD74
:101070007B89FB83FB887B81FB8BFB803B89BB836C
:101080003B8E3B81BB8B3B86FA887B89D31A9BB214
:101090007B83B7F93020B7F90830D31A002BB8BFDB
:1010A0005B423B83B7F91A30DA0F13445B10FB84C1
:1010B000B7F90820B7F930309A4201DA012301E08C
:1010C0004FF0FF33FB822DE0B7F92430002B08D01E
:1010D000BB8EB7F90A20B7F90810F868FFF775FF5B
:1010E00007E0BB8EB7F90820B7F90A10F868FFF7D8
:1010F0006CFFFA8C3B8BD31A9BB2FB84B7F926307A
:10110000002B09DA3A89FB8A13449BB23B81FA8CA3
:101110007B8B13449BB2FB84B7F90A309BB201333B
:101120009BB27B81B7F90A20B7F906309A42CBDD32
:1011300000BF00BF2837BD4680BD90B587B002AF65
:10114000F860084611461A4603467B810B463B81F0
:101150001346FB803A89FB8813449BB2013B9BB248
:101160001BB2B7F90A40B7F90800B7F90A103A8C70
:101170000192009323460246F868FFF73FFF00BF45
:101180001437BD4690BD80B58AB002AFF8600846FE
:1011900011461A4603467B810B463B811346FB8072
:1011A000FB88C3F101039BB2FB830123BB83FB8854
:1011B0001A46D203D31A5B009BB27B8300233B8386
:1011C000FB88FB823B8BBB82FB8A7B82B7F92C308E
:1011D0009BB201339BB2BB85A9E0B7F91E30002B4F
:1011E0000EDBB7F916309BB2013B9BB2FB827B8BC7
:1011F00002339BB27B83FA8B7B8B13449BB2FB83C2
:10120000B7F918309BB201339BB23B83BB8B0233DF
:101210009BB2BB83FA8BBB8B13449BB2FB83B7F9A6
:101220001620B7F918309A423BDB97F8283003F0C4
:101230000103002B17D07A893B8B13449BB219B260
:101240003A89FB8AD31A9BB218B2FB8A5B009AB226
:10125000BB8D13449BB21AB23B8E009313460246D9
:10126000F868FFF76AFF97F8283003F00203002BB5
:1012700017D07A893B8BD31A9BB219B23A89FB8A71
:10128000D31A9BB218B2FB8A5B009AB2BB8D13448F
:101290009BB21AB23B8E009313460246F868FFF7E2
:1012A0004CFFB7F91620B7F912309A423DD097F8A3
:1012B000283003F00103002B17D07A897B8A13446E
:1012C0009BB219B23A89BB8AD31A9BB218B2BB8AB5
:1012D0005B009AB2BB8D13449BB21AB23B8E009353
:1012E00013460246F868FFF728FF97F8283003F006
:1012F0000203002B17D07A897B8AD31A9BB219B2CA
:101300003A89BB8AD31A9BB218B2BB8A5B009AB2E5
:10131000BB8D13449BB21AB23B8E00931346024618
:10132000F868FFF70AFFFB8A7B823B8BBB82B7F929
:101330001820B7F916309A42FFF64FAF00BF00BF32
:101340002037BD4680BD80B588B004AFF860084640
:1013500011461A4603467B810B463B811346FB80B0
:101360003A89FB88D31A9BB21AB2FB885B009BB206
:1013700001339BB218B2B7F90A103B8B00930346B6
:10138000F868FFF7DAFEB7F90600B7F90820B7F9F1
:101390000A103B8B0293002301930323009303461F
:1013A000F868FFF7F0FE00BF1037BD4680BD0000B3
:1013B000B0B58CB002AFF860084611461A46034635
:1013C0007B810B463B811346FB8000237B626AE0F6
:1013D00000233B625FE07A6A3B6A13441846FFF7DA
:1013E00067FB034634491846FFF7B6FB034633490B
:1013F0001846FFF765FC0346FB61B7F90A3018464B
:10140000FFF756FB0446B7F906301846FFF750FBC6
:101410000546F86905F0F4F8034619462846FFF733
:101420009BFB034619462046FFF78EFA03461846F3
:10143000FFF76EFD0346BB61B7F908301846FFF7AA
:1014400037FB0446B7F938301846FFF731FB05463D
:10145000F86905F00DF9034619462846FFF77CFBAD
:10146000034619462046FFF76FFA03461846FFF772
:101470004FFD03467B61BB6919B27B691AB27B6C75
:1014800018B2B7F8483000930346F868FFF75BFFDF
:101490003B6A01333B623A6A3B6C9A429BDB7A6A55
:1014A000FB6B13447B627B6AB3F5B47F90DB00BFB8
:1014B00000BF2837BD46B0BDD00F494000003443BF
:1014C00080B582B000AF78607B6858687B681B8904
:1014D0000022194603F0D6F800BF0837BD4680BD8C
:1014E00080B582B000AF78607B6858687B681B89E4
:1014F0000122194603F0C6F800BF0837BD4680BD7B
:1015000080B582B000AF78607B68D8687B681B8A42
:101510000022194603F0B6F800BF0837BD4680BD6B
:1015200080B582B000AF78607B68D8687B681B8A22
:101530000122194603F0A6F800BF0837BD4680BD5A
:1015400080B582B000AF78607B6858697B681B8B80
:101550000022194603F096F800BF0837BD4680BD4B
:1015600080B582B000AF78607B6858697B681B8B60
:101570000122194603F086F800BF0837BD4680BD3A
:1015800080B582B000AF78600B46FB707B6818684E
:10159000F91C4FF0FF33012203F0EEFC00BF0837C7
:1015A000BD4680BD80B582B000AF7860786802F03B
:1015B000C5FB00BF0837BD4680BD80B582B000AF17
:1015C00078600B46FB707868FFF79AFF7868FFF742
:1015D00077FFFB7819467868FFF7D2FF7868FFF746
:1015E0007FFF00BF0837BD4680BD80B582B000AF29
:1015F00078600B46FB707868FFF792FF7868FFF71A
:101600005FFFFB7819467868FFF7BAFF7868FFF745
:1016100067FF00BF0837BD4680BD80B584B000AF0E
:1016200078600B467B807868FFF77AFF7868FFF771
:1016300047FF7B881B0A9BB2FB737B88BB73FB7BDA
:1016400019467868FFF79CFFBB7B19467868FFF75F
:1016500097FF7868FFF744FF00BF1037BD4680BD95
:1016600080B582B000AF78607868FFF779FF6420BA
:10167000FFF798FF7868FFF763FF6420FFF792FF9A
:101680007868FFF76DFF6420FFF78CFF00BF083715
:10169000BD4680BD80B584B000AFF86008461146F5
:1016A0001A4603467B810B463B811346FB802A2169
:1016B000F868FFF782FF7B891B0A9BB2DBB21946F1
:1016C000F868FFF792FF7B89DBB21946F868FFF7ED
:1016D0008CFFFB881B0A9BB2DBB21946F868FFF748
:1016E00084FFFB88DBB21946F868FFF77EFF2B21E9
:1016F000F868FFF762FF3B891B0A9BB2DBB2194611
:10170000F868FFF772FF3B89DBB21946F868FFF70C
:101710006CFF3B8B1B0A9BB2DBB21946F868FFF7E4
:1017200064FF3B8BDBB21946F868FFF75EFF2C21A4
:10173000F868FFF742FF00BF1037BD4680BD80B597
:1017400082B000AF78607868FFF78AFFEF21786891
:10175000FFF733FFEB217868FFF72FFF142178683C
:10176000FFF743FFFE217868FFF727FFEF21786836
:10177000FFF723FFEB217868FFF71FFF142178683C
:10178000FFF733FF84217868FFF717FF402178685F
:10179000FFF72BFF85217868FFF70FFFFF2178689F
:1017A000FFF723FF86217868FFF707FFFF2178689E
:1017B000FFF71BFF87217868FFF7FFFEFF2178689E
:1017C000FFF713FF88217868FFF7F7FE0A21786892
:1017D000FFF70BFF89217868FFF7EFFE212178687A
:1017E000FFF703FF8A217868FFF7E7FE002178689A
:1017F000FFF7FBFE8B217868FFF7DFFE802178681A
:10180000FFF7F3FE8C217868FFF7D7FE0121786897
:10181000FFF7EBFE8D217868FFF7CFFE0121786896
:10182000FFF7E3FE8E217868FFF7C7FEFF21786897
:10183000FFF7DBFE8F217868FFF7BFFEFF21786896
:10184000FFF7D3FEB6217868FFF7B7FE002178686E
:10185000FFF7CBFE20217868FFF7C7FE36217868B6
:10186000FFF7ABFE08217868FFF7BFFE3A217868E2
:10187000FFF7A3FE05217868FFF7B7FE902178688F
:10188000FFF79BFE08217868FFF7AFFE0821786814
:10189000FFF7ABFE08217868FFF7A7FE08217868FC
:1018A000FFF7A3FE08217868FFF79FFE08217868FC
:1018B000FFF79BFEBD217868FFF77FFE0621786861
:1018C000FFF793FEBC217868FFF777FE0021786868
:1018D000FFF78BFEFF217868FFF76FFE60217868C5
:1018E000FFF783FE01217868FFF77FFE0421786807
:1018F000FFF77BFEC3217868FFF75FFE132178684E
:10190000FFF773FEC4217868FFF757FE132178684C
:10191000FFF76BFEC9217868FFF74FFE2221786838
:10192000FFF763FEBE217868FFF747FE1121786854
:10193000FFF75BFEE1217868FFF73FFE1021786832
:10194000FFF753FE0E217868FFF74FFEDF2178681E
:10195000FFF733FE21217868FFF747FE0C217868F6
:10196000FFF743FE02217868FFF73FFEF021786819
:10197000FFF723FE45217868FFF737FE09217868D5
:10198000FFF733FE08217868FFF72FFE08217868FB
:10199000FFF72BFE26217868FFF727FE2A217868BB
:1019A000FFF723FEF1217868FFF707FE43217868EF
:1019B000FFF71BFE70217868FFF717FE7221786829
:1019C000FFF713FE36217868FFF70FFE372178689E
:1019D000FFF70BFE6F217868FFF707FEF2217868AA
:1019E000FFF7EBFD45217868FFF7FFFD09217868D7
:1019F000FFF7FBFD08217868FFF7F7FD08217868FD
:101A0000FFF7F3FD26217868FFF7EFFD2A217868BC
:101A1000FFF7EBFDF3217868FFF7CFFD43217868EE
:101A2000FFF7E3FD70217868FFF7DFFD722178682A
:101A3000FFF7DBFD36217868FFF7D7FD372178689F
:101A4000FFF7D3FD6F217868FFF7CFFDED217868B0
:101A5000FFF7B3FD1B217868FFF7C7FD0B217868FE
:101A6000FFF7C3FDAE217868FFF7A7FD77217868FF
:101A7000FFF7BBFDCD217868FFF79FFD63217868F4
:101A8000FFF7B3FD70217868FFF797FD07217868AD
:101A9000FFF7ABFD07217868FFF7A7FD0421786801
:101AA000FFF7A3FD0E217868FFF79FFD0F217868EF
:101AB000FFF79BFD09217868FFF797FD07217868FC
:101AC000FFF793FD08217868FFF78FFD0321786801
:101AD000FFF78BFDE8217868FFF76FFD3421786808
:101AE000FFF783FD62217868FFF767FD18217868AA
:101AF000FFF77BFD0D217868FFF777FD712178688E
:101B0000FFF773FDED217868FFF76FFD70217868AE
:101B1000FFF76BFD70217868FFF767FD1821786883
:101B2000FFF763FD0F217868FFF75FFD712178688B
:101B3000FFF75BFDEF217868FFF757FD70217868AC
:101B4000FFF753FD70217868FFF74FFD6321786838
:101B5000FFF733FD18217868FFF747FD11217868FA
:101B6000FFF743FD71217868FFF73FFDF1217868A9
:101B7000FFF73BFD70217868FFF737FD702178682B
:101B8000FFF733FD18217868FFF72FFD13217868E0
:101B9000FFF72BFD71217868FFF727FDF3217868A7
:101BA000FFF723FD70217868FFF71FFD702178682B
:101BB000FFF71BFD64217868FFF7FFFC2821786898
:101BC000FFF713FD29217868FFF70FFDF1217868F1
:101BD000FFF70BFD01217868FFF707FDF121786819
:101BE000FFF703FD00217868FFF7FFFC0721786805
:101BF000FFF7FBFC66217868FFF7DFFC3C21786883
:101C0000FFF7F3FC00217868FFF7EFFCCD2178683F
:101C1000FFF7EBFC67217868FFF7E7FC4521786860
:101C2000FFF7E3FC45217868FFF7DFFC10217868B7
:101C3000FFF7DBFC00217868FFF7D7FC002178680C
:101C4000FFF7D3FC00217868FFF7CFFC67217868A5
:101C5000FFF7B3FC00217868FFF7C7FC3C217868E8
:101C6000FFF7C3FC00217868FFF7BFFC002178680C
:101C7000FFF7BBFC00217868FFF7B7FC012178680B
:101C8000FFF7B3FC54217868FFF7AFFC10217868A8
:101C9000FFF7ABFC32217868FFF7A7FC9821786842
:101CA000FFF7A3FC74217868FFF787FC10217868A0
:101CB000FFF79BFC85217868FFF797FC8021786807
:101CC000FFF793FC00217868FFF78FFC002178680C
:101CD000FFF78BFC4E217868FFF787FC00217868BE
:101CE000FFF783FC98217868FFF767FC3E2178684E
:101CF000FFF77BFC07217868FFF777FC35217868D0
:101D0000FFF75BFC21217868FFF757FC1121786809
:101D1000FFF753FC7820FFF745FC29217868FFF78F
:101D20004CFC1420FFF73EFC00BF0837BD4680BDC9
:101D300080B586B002AFF860084611461A460346E1
:101D40007B810B463B811346FB807B89EF2B11D8AF
:101D50003B89EF2B0ED878893A8979893B890093A2
:101D60000346F868FFF796FCFB881946F868FFF70A
:101D700054FC00E000BF1037BD4680BD80B588B080
:101D800002AFF860084611461A4603467B810B46AF
:101D90003B811346FB807B89EF2B3BD83B89EF2BA4
:101DA00038D87A89FB881344F02B03DD7B89C3F193
:101DB000F003FB803A893B8C1344F02B03DD3B8915
:101DC000C3F1F0033B847A89FB8813449BB2013B47
:101DD00098B23A893B8C13449BB2013B9BB23A893F
:101DE000798900930346F868FFF754FC00237B6170
:101DF00007E0BB8C1946F868FFF70FFC7B690133DD
:101E00007B61FB883A8C02FB03F31A467B699342A1
:101E1000EFD300E000BF1837BD4680BD80B584B069
:101E200002AF78600B467B807B880193F0230093A0
:101E3000F023002200217868FFF7A0FF00BF0837D9
:101E4000BD4680BD80B586B002AFF8600846114639
:101E50001A4603467B810B463B811346FB807B89F8
:101E6000EF2B36D83B89EF2B33D87A89FB88134484
:101E7000F02B30DC3A893B8B1344F02B2DDC7A8934
:101E8000FB8813449BB2013B98B23A893B8B1344C5
:101E90009BB2013B9BB23A89798900930346F8686B
:101EA000FFF7F8FBF868FFF73BFBF868FFF708FB64
:101EB0000C4B01221A70FB681868FB883A8B02FBF6
:101EC00003F39BB25B009BB21A46F96903F098F9E1
:101ED00004E000BF02E000BF00E000BF1037BD46D5
:101EE00080BD00BF8400002080B487B000AF0346EF
:101EF000FB800B46BB801346FB70FB88DB0A9BB262
:101F0000DBB203F01F03FB75FB885B099BB2DBB2FE
:101F100003F03F03BB75FB88DBB203F01F037B7547
:101F2000BB88DB0A9BB2DBB203F01F033B75BB88A7
:101F30005B099BB2DBB203F03F03FB74BB88DBB2EF
:101F400003F01F03BB74FB7DFA78C2F1FF0203FBB1
:101F500002F23B7DF97801FB03F313441B127B74FF
:101F6000BB7DFA78C2F1FF0203FB02F2FB7CF97839
:101F700001FB03F313441B123B747B7DFA78C2F11F
:101F8000FF0203FB02F2BB7CF97801FB03F313446D
:101F90001B12FB737B7C1BB2DB021AB23B7C1BB2B5
:101FA0005B011BB213431AB2FB7B1BB213431BB280
:101FB0009BB218461C37BD4680BC704780B586B0C2
:101FC00006AF01F059FE01F0E3FA01F0B9FB01F0B0
:101FD00091FB01F023FB01F057FB734B734A1A602E
:101FE000714B734A5A60704B4FF480621A816E4B8A
:101FF0006F4ADA606C4B02221A826B4B6C4A5A6150
:10200000694B01221A836B4B6B4A1A60694B6B4A0E
:102010005A60684B4FF480621A81664B674ADA60F7
:10202000644B4FF400721A82624B644A5A61614BEE
:102030004FF480721A835C48FFF781FB5D48FFF71D
:102040007EFB4FF6FF715848FFF7E8FE4FF6FF7131
:102050005848FFF7E3FE002304930223039307236A
:1020600002930A230193692300936923782278213C
:102070004D48FFF79DF900230493022303930723A0
:1020800002930A230193702300937023782278210E
:102090004548FFF78DF90023049302230393072398
:1020A00002930A23019376230093762378227821E2
:1020B0003D48FFF77DF90023049302230393072390
:1020C00002930A23019369230093692378227821DC
:1020D0003848FFF76DF90023049302230393072385
:1020E00002930A23019370230093702378227821AE
:1020F0003048FFF75DF9002304930223039307237D
:1021000002930A2301937623009376237822782181
:102110002848FFF74DF92A4B78221A70294B78226C
:102120001A70294B41221A70284B41221A70284BF1
:1021300037221A70264B1B785B08DAB2254B1A70CF
:102140001F4B1A78244B1A701E4B1A78234B1A70A7
:10215000234B00221A60224B1B68224A1360214B3A
:102160001B68214A1360204B1B68204A1360204BD8
:102170004FF07E521A601F4B0A221A601E4B00223B
:102180001A701E4B19221A701D4B00221A701C4B1C
:102190001B781A461B4B9A5C1B4B1A7000F078F99F
:1021A00000F034F800BFF9E7C001002088000020EB
:1021B000000C0140DC010020E0000020000801408C
:1021C000F8010020F9010020FA010020FB010020A5
:1021D000FC010020FD010020FE010020FF01002085
:1021E000100200200C02002008020020040200203F
:1021F00014020020180200201E0200201D020020F0
:102200001C020020F47200080002002080B5D4B047
:102210000AAF924B1B781A46914B1B78D31AC7F81A
:102220002431904B1B781A468F4B1B78D31AC7F872
:1022300020318E4B1B781A468D4B1B78D31A1846CB
:10224000FEF736FC0346C7F81431D7F8243103FBF8
:1022500003F2D7F8203103FB03F313441846FEF7CB
:1022600027FC0346184604F0B1F9C7F81001D7F867
:102270001411D7F81001FEF72BFE0346002B36D0C1
:102280004FF00001D7F81001FEF722FE0346002BA5
:102290002DD0D7F82401FEF70BFC0346D7F8141114
:1022A0001846FEF759FC0346D7F810111846FEF7FA
:1022B00007FD03461846FEF72BFE0346C7F82431F8
:1022C000D7F82001FEF7F4FB0346D7F8141118469F
:1022D000FEF742FC0346D7F810111846FEF7F0FC53
:1022E00003461846FEF714FE0346C7F820315C4B40
:1022F0001B78C7F80C315C4B1B78C7F808315C4B76
:102300001B78C7F80431594B1B78C7F80031D7F850
:102310002431C7F8FC30D7F82031C7F8F830554BD6
:102320001B68C7F8F4300023C7F81C318AE0D7F8DF
:102330001C31772B04DDD7F81C31C3F1780300E0A2
:102340000123C7F8F0300023C7F818312FE0D7F881
:102350001C21D7F81831D018D7F8182113461B01C3
:102360009B1ADB003A465B001344D7F8F42008922E
:102370000793002306934FF6FF7305934FF60C0364
:10238000049300230393D7F8F8300293D7F8FC3076
:102390000193D7F800310093D7F804313C223C2157
:1023A00000F036FFD7F818310133C7F81831D7F8E5
:1023B0001821D7F8F0309A42C9DBD7F80C319BB21C
:1023C0003C3B99B2D7F808319AB2D7F81C319BB28E
:1023D00013449BB23C3B98B2D7F8F0309BB23A46DC
:1023E00001920093782302462348FFF72BFD00BF9C
:1023F000224B1B78DBB2002BFAD1D7F80C319BB201
:102400003C3B99B2D7F808319AB2D7F81C319BB24D
:1024100013449BB23C3B98B2D7F8F0309BB23A469B
:1024200001920093782302461548FFF70BFD00BF89
:10243000124B1B78DBB2002BFAD1D7F81C310133D9
:10244000C7F81C31D7F81C31772B7FF770AF00BF6E
:1024500000BF07F59477BD4680BD00BFF80100209E
:10246000FE010020F9010020FF010020FD010020F5
:10247000FC01002020020020C00100208400002078
:10248000DC01002080B400AF72B600BF00BFFDE7E2
:10249000B0B58AB000AF6A4B1B680133684A13605D
:1024A000684B1B780F2B07D0664B1B78102B03D083
:1024B000644B1B78112B01D1012300E000237B62C8
:1024C000614B1B684FF07E511846FEF7F7FC034640
:1024D000002B1AD07B6A002B17D15C4B1B68002B9A
:1024E00005D15B4B00221A60584B01221A60584BF1
:1024F0001B68092B06DC564B1B680133544A1360DA
:1025000000F060BE514B00221A604F4B1B684FF029
:102510007E511846FEF7BEFC0346002B5DD04D4BA6
:102520001B681846FEF7C4FA034619464A48FEF7E8
:10253000C7FB03461A46444B1B6819461046FEF774
:1025400003FA03461A46404B1A603F4B1B684FF094
:102550007E511846FEF7BCFC0346002B03D03A4BD5
:102560004FF07E521A603D4B1A683D4B1B68D31AE0
:102570001846FEF79DFA0246334B1B681946104673
:10258000FEF7EAFA03461846FEF7C2FC0346DAB243
:10259000334B1B68DBB21344DAB2324B1A70324B46
:1025A0001A68324B1B68D31A1846FEF781FA0246A6
:1025B000254B1B6819461046FEF7CEFA034618460F
:1025C000FEF7A6FC0346DAB2284B1B68DBB21344C5
:1025D000DAB2274B1A7000F0F5BD1C4B1B68002BBC
:1025E00040F0F085174B1B78122B00F2EB8501A20F
:1025F00052F823F0EF2700085D280008052900089D
:1026000073290008D12900083D2A00089B2A0008E8
:10261000492B0008A72B0008812C0008892D0008F1
:10262000632E0008C12E0008DF2C00089B2F000835
:10263000413000087526000867310008C5310008E0
:1026400020020020000200201402002024020020AA
:1026500028020020180200203333B33F0C02002070
:1026600004020020FE0100201002002008020020C9
:10267000FF010020914B1B781846FDF7BBFE044676
:102680000D468F4B1B781846FDF7B4FE4FF0000245
:102690008C4BFDF719FF02460B4620462946FDF7F5
:1026A0005BFD02460B4610461946FEF71FF903462E
:1026B0003B62854B1B781846FDF79CFE04460D4691
:1026C0007F4B1B781846FDF795FE4FF000027D4BBF
:1026D000FDF7FAFE02460B4620462946FDF73CFD73
:1026E00002460B4610461946FEF700F90346FB6109
:1026F000764B1B781A4614239A4245DA744B1B78A2
:102700001A46744B1A60744B1B781A46734B1A6046
:1027100002F076FF03463A6A93FBF2F2396A01FB54
:1027200002F29A1A3B6AD90F0B445B105B421344C6
:10273000BB6102F065FF0346FA6993FBF2F2F969A7
:1027400001FB02F29A1AFB69D90F0B445B105B4242
:1027500013447B61624B1B781A46BB691344614A80
:102760001360614B1B781A467B6913445F4A136000
:102770005F4B4FF000021A60544B1B780133DAB202
:10278000524B1A7000F01EBD504B00221A70504B75
:102790001B781A464F4B1A604F4B1B781A464F4B0B
:1027A0001A604F4B1B781A464E4B1A604E4B1B78E3
:1027B0001A464E4B1A604E4B4FF000021A604D4BBA
:1027C0001B780133DAB24B4B1A704A4B1A784A4BDA
:1027D0001B789A4202D3474B00221A70454B1B7854
:1027E0001A46464B9A5C464B1A7000F0EBBC384BCD
:1027F0001B781A46374B1A60374B1B781A46374BF3
:102800001A60374B1B781A46364B1A60364B1B78CA
:102810001A462D4B1B781946294B1B78CB1AD31A15
:10282000324A1360324B4FF000021A60314B1B7872
:102830000133DAB22F4B1A702E4B1A782E4B1B78BD
:102840009A4202D32B4B00221A702A4B1B781A464D
:102850002A4B9A5C2A4B1A7000F0B4BC1C4B1B78B4
:102860001A461C4B1A601C4B1B781A461B4B1A60ED
:102870001B4B1B781A461B4B1A601B4B1B781A46C6
:102880001A4B1A601A4B4FF000021A60194B1B7852
:102890000133DAB2174B1A70164B1A78164B1B78A5
:1028A0009A4202D3134B00221A70124B1B781A461D
:1028B000124B9A5C124B1A7000F084BCFA01002093
:1028C000FC0100200000E03FFB0100201E02002070
:1028D000FE01002004020020FF0100200802002069
:1028E000F80100200C020020F90100201002002055
:1028F000140200201C0200201D020020F4720008B7
:1029000000020020804B1B781A46804B1A60804BD7
:102910001B781A467F4B1A607F4B1B781A467F4BF9
:102920001B7819467E4B1B78CB1AD31A7D4A13604D
:102930007D4B1B781A467D4B1A607D4B4FF0000291
:102940001A607C4B1B780133DAB27A4B1A70794BE0
:102950001A78794B1B789A4202D3764B00221A7070
:10296000744B1B781A46754B9A5C754B1A7000F0C5
:1029700029BC654B1B781A46644B1A60644B1B7864
:102980001A46644B1A60644B1B781A46654B1A60F2
:10299000654B1B781A46654B1A60654B4FF0000279
:1029A0001A60644B1B780133DAB2624B1A70614BC8
:1029B0001A78614B1B789A4202D35E4B00221A7040
:1029C0005C4B1B781A465D4B9A5C5D4B1A70F9E3C1
:1029D0004D4B1B781A464D4B1A604D4B1B781A46CF
:1029E0004C4B1A604C4B1B781A464E4B1A604E4BA0
:1029F0001B781A46534B1B781946494B1B78CB1A48
:102A000013444A4A13604A4B4FF000021A60494B84
:102A10001B780133DAB2474B1A70464B1A78464B93
:102A20001B789A4202D3434B00221A70414B1B7809
:102A30001A46424B9A5C424B1A70C3E3324B1B78E6
:102A40001A46324B1A60324B1B781A46314B1A60C9
:102A5000314B1B781A46334B1A60334B1B781A469E
:102A6000324B1A60324B4FF000021A60314B1B7828
:102A70000133DAB22F4B1A702E4B1A782E4B1B787B
:102A80009A4202D32B4B00221A702A4B1B781A460B
:102A90002A4B9A5C2A4B1A7094E31B4B1B781A46FC
:102AA0001A4B1A601A4B1B781A461A4B1A601A4BAB
:102AB0001B781A46194B1B781946194B1B78CB1AF1
:102AC0001344184A1360184B1B781A46174B1A60A8
:102AD000174B4FF000021A60164B1B780133DAB225
:102AE000144B1A70134B1A78134B1B789A4202D36B
:102AF000104B00221A700F4B1B781A460F4B9A5C32
:102B00000F4B1A705EE300BFFE010020040200209C
:102B1000FF01002008020020F8010020FA01002037
:102B2000FC0100200C020020F9010020100200200E
:102B3000140200201C0200201D020020F472000874
:102B400000020020FB0100207F4B1B781A467F4BC0
:102B50001A607F4B1B781A467E4B1A607E4B1B789F
:102B60001A467E4B1A607E4B1B781A467D4B1A60C4
:102B70007D4B4FF000021A607C4B1B780133DAB2B8
:102B80007A4B1A70794B1A78794B1B789A4202D398
:102B9000764B00221A70754B1B781A46754B9A5C5F
:102BA000754B1A700EE3684B1B781A46674B1A6018
:102BB000674B1B781A46674B1A60674B1B781846A1
:102BC000FDF718FC04460D466C4B1B781A466C4BFF
:102BD0001B78D31A1846FDF70DFC59A3D3E900233F
:102BE000FDF79CFD02460B4620462946FDF7B4FA48
:102BF00002460B4610461946FDF778FE0346574A33
:102C00001360574B1B781846FDF7F4FB04460D463E
:102C10005C4B1B781A465A4B1B78D31A1846FDF7A3
:102C2000E9FB47A3D3E90023FDF778FD02460B46F5
:102C300020462946FDF790FA02460B4610461946F3
:102C4000FDF754FE0346474A1360474B4FF000021E
:102C50001A60464B1B780133DAB2444B1A70434B6F
:102C60001A78434B1B789A4202D3404B00221A70C9
:102C70003E4B1B781A463F4B9A5C3F4B1A70A1E2C1
:102C8000314B1B781A46314B1A60314B1B781A4670
:102C9000304B1A60304B1B781A46304B1A60304B61
:102CA0001B781A462F4B1A602F4B4FF000021A6008
:102CB0002E4B1B780133DAB22C4B1A702B4B1A783F
:102CC0002B4B1B789A4202D3284B00221A70274BB9
:102CD0001B781A46274B9A5C274B1A7072E21A4BE4
:102CE0001B781A46194B1A60194B1B781A46194B58
:102CF0001A60194B1B781A46184B1A60184B1B7830
:102D00001A46184B1A60184B4FF000021A60174B06
:102D10001B780133DAB2154B1A70144B1A78144B26
:102D20001B789A4202D3114B00221A700F4B1B786A
:102D30001A46104B9A5C104B1A7043E2AFF30080B6
:102D4000666666666666F63FFE01002004020020A5
:102D5000FF01002008020020F80100200C020020E2
:102D6000F901002010020020140200201C020020A3
:102D70001D020020F472000800020020FA01002069
:102D8000FC010020FB0100209D4B1B781A469D4B47
:102D90001A609D4B1B781A469C4B1A609C4B1B7803
:102DA0001846FDF727FB04460D469A4B1B781A463A
:102DB000994B1B78D31A1846FDF71CFB8EA3D3E959
:102DC0000023FDF7ABFC02460B4620462946FDF7E3
:102DD000C5F902460B4610461946FDF787FD034626
:102DE0008E4A13608E4B1B781846FDF703FB044692
:102DF0000D468C4B1B781A46874B1B78D31A184606
:102E0000FDF7F8FA7CA3D3E90023FDF787FC02461F
:102E10000B4620462946FDF79FF902460B46104611
:102E20001946FDF763FD03467F4A13607F4B4FF061
:102E300000021A607E4B1B780133DAB27C4B1A70A9
:102E40007B4B1A787B4B1B789A4202D3784B00223B
:102E50001A70774B1B781A46774B9A5C774B1A702F
:102E6000B0E1674B1B781A46664B1A60664B1B78BD
:102E70001A46664B1A60664B1B781A46674B1A60F7
:102E8000674B1B781A46684B1A60684B4FF000027C
:102E90001A60674B1B780133DAB2654B1A70644BCA
:102EA0001A78644B1B789A4202D3614B00221A7045
:102EB0005F4B1B781A46604B9A5C604B1A7081E13D
:102EC0004F4B1B781A464F4B1A604F4B1B781A46D4
:102ED0004E4B1A604E4B1B781846FDF78BFA044692
:102EE0000D464C4B1B781A464B4B1B78D31A184691
:102EF000FDF780FA40A3D3E90023FDF70FFC02465B
:102F00000B4620462946FDF727F902460B46104698
:102F10001946FDF7EBFC0346404A1360404B1B7813
:102F20001846FDF767FA04460D463E4B1B781A46D5
:102F3000394B1B78D31A1846FDF75CFA2EA3D3E958
:102F40000023FDF7EBFB02460B4620462946FDF722
:102F500005F902460B4610461946FDF7C7FC034625
:102F6000314A1360314B4FF000021A60304B1B782E
:102F70000133DAB22E4B1A702D4B1A782D4B1B7879
:102F80009A4202D32A4B00221A70294B1B781A4608
:102F9000294B9A5C294B1A7014E1194B1B781A467D
:102FA000184B1A60184B1B781A46184B1A60184BAE
:102FB0001B781A46194B1A60194B1B781A461A4B84
:102FC0001A601A4B4FF000021A60194B1B7801333C
:102FD000DAB2174B1A70164B1A78164B1B789A42B6
:102FE00002D3134B00221A70114B1B781A46124B56
:102FF0009A5C124B1A70E5E0666666666666F63F96
:10300000FE01002004020020FF0100200802002031
:10301000F8010020FA010020FC0100200C02002031
:10302000F9010020FB010020100200201402002002
:103030001C0200201D020020F47200080002002083
:10304000624B1B781846FDF7D5F904460D46604BD8
:103050001B781846FDF7CEF94FF000025D4BFDF7E7
:1030600033FA02460B4620462946FDF775F802461C
:103070000B4610461946FDF739FC03463B61564B9B
:103080001B781846FDF7B6F904460D46504B1B78E1
:103090001846FDF7AFF94FF000024E4BFDF714FA5A
:1030A00002460B4620462946FDF756F802460B46D7
:1030B00010461946FDF71AFC0346FB60474B1B7888
:1030C0001A46474B1A60474B1B781A46464B1A6004
:1030D00002F096FA03463A6993FBF2F2396901FB72
:1030E00002F29A1A3B69D90F0B445B105B421344FE
:1030F000BB6002F085FA0346FA6893FBF2F2F968C6
:1031000001FB02F29A1AFB68D90F0B445B105B4279
:1031100013447B60354B1B781A46BB681344344A12
:103120001360344B1B781A467B681344324A136091
:10313000324B4FF000021A60314B1B780133DAB288
:103140002F4B1A702E4B1A782E4B1B789A4202D3B3
:103150002B4B00221A702A4B1B781A462A4B9A5C7A
:103160002A4B1A702EE01D4B1B781A461C4B1A6016
:103170001C4B1B781A461C4B1A601C4B1B781A46BA
:103180001B4B1A601B4B1B781A461B4B1A601B4BC0
:103190004FF000021A601A4B1B780133DAB2184B59
:1031A0001A70174B1A78174B1B789A4202D3144B9C
:1031B00000221A70124B1B781A46134B9A5C134B61
:1031C0001A7000BF2837BD46B0BD00BFFA0100200D
:1031D000FC0100200000E03FFB010020FE01002078
:1031E00004020020FF01002008020020F801002056
:1031F0000C020020F901002010020020140200201F
:103200001C0200201D020020F472000800020020B1
:1032100090B5A5B000AFF860B9607A603B603B68DC
:1032200003FB03F3C7F88430BB68C7F880307B68C2
:10323000FB674FF08043BB67D7F8C000FDF738FC51
:103240000346B5491846FDF787FC0346184603F0C8
:103250000FFA03461946B86FFDF77EFC03467B67FD
:10326000D7F8C000FDF724FC0346AC491846FDF72B
:1032700073FC0346184603F0C3F903461946B86FBA
:10328000FDF76AFC03463B673B68A54A82FB0312D5
:10329000DB179A1ABB68D418D7F8C000FDF708FCF2
:1032A0000346A0491846FDF757FC0346184603F0AD
:1032B000DFF903464FF07F511846FDF74DFC0346FA
:1032C0001846FDF725FE034623442333FB663B687F
:1032D000934A82FB0312DB179A1A7B68D418D7F83B
:1032E000C000FDF7E5FB03468F491846FDF734FCA7
:1032F0000346184603F084F903464FF07F51184601
:10330000FDF72AFC03461846FDF702FE0346234458
:103310000A3BBB66D7F8C020844B83FB02131344DF
:103320009911D317C91A0B461B015B1ADB00D11A7E
:103330000929D4BF01230023DBB27B66FA687B68CE
:10334000D31A3B663B6E03FB03F3FB650023C7F810
:103350008C30D6E0D7F88C20BB68D31ABB65BB6D28
:1033600003FB03F3FA6D13447B65B7F8B430A7F899
:103370008A307A6DD7F884309A423ADC7A6D1346F7
:103380001B029A1AD7F8843092FBF3F33B65386D31
:10339000FDF78EFB034666491846FDF7DDFB034645
:1033A0001846FDF7DBFD0346DAB2B7F8AC10B7F804
:1033B000B0301846FEF798FD0346A7F88A30D7F8D4
:1033C0008C20D7F88030D31AFB64FA68FB6FD31ACD
:1033D000BB64FB6C03FB03F2BB6C03FB03F31A44FB
:1033E000D7F8A03003FB03F39A4202DC0023A7F8CE
:1033F0008A300A237B643B68494A82FB0312DB174D
:103400009A1ABB68D418786FFDF782FD03462344EF
:103410003B643B68424A82FB0312DB179A1A7B68C3
:10342000D418386FFDF774FD03462344FB63D7F8C7
:103430008C203B6CD31ABB63FA68FB6BD31A7B639B
:10344000BB6B03FB03F27B6B03FB03F31A447B6C44
:1034500003FB03F39A4203DC4FF6FF73A7F88A30AD
:1034600004233B63BB685A003B6CD31AFB627B6846
:103470005A00FB6BD31ABB62D7F88C20FB6AD31AB5
:103480007B62FA68BB6AD31A3B627B6A03FB03F276
:103490003B6A03FB03F31A443B6B03FB03F39A42BF
:1034A00003DC4FF6FF73A7F88A300823FB61D7F8D7
:1034B0008C20FB6ED31ABB61FA68BB6ED31A7B619A
:1034C0007B6E002B0FD0BB6903FB03F27B6903FB10
:1034D00003F31A44FB6903FB03F39A4203DC4FF640
:1034E000FF73A7F88A30D7F88C305B00D7F8BC2080
:1034F0001344B7F88A201A80D7F88C300133C7F804
:103500008C30D7F88C30772B7FF724AF00BF00BF0B
:103510009437BD4690BD00BF9A99193EEC51383E94
:1035200056555555AE47613E5C8F423E8988888826
:103530003333333F80B582B000AF78607B681B685F
:103540000E4A934208D101224FF480610C4801F0E9
:1035500099F80C4B00221A707B681B680A4A934248
:1035600008D101224FF48061084801F08BF8054B27
:1035700000221A7000BF0837BD4680BD00300140F0
:10358000000C014084000020003800400008014089
:1035900080B590B000AF07F118032822002118462B
:1035A00002F071F93B1D00221A605A609A60DA60DD
:1035B0001A610123BB614FF48033FB6100233B623E
:1035C0000123BB6202237B634FF48033BB634FF460
:1035D000E013FB6307F11803184601F06BF803468C
:1035E000002B01D0FEF74EFF0F237B600223BB6050
:1035F0000023FB604FF480633B6100237B613B1D34
:103600000221184601F0D8FA0346002B01D0FEF73C
:1036100039FF00BF4037BD4680BD000080B500AF18
:10362000174B184A1A60164B4FF482725A60144BAB
:1036300000229A60124B0022DA60114B00221A61BC
:103640000F4B00225A610E4B4FF400729A610C4BE3
:103650000822DA610A4B00221A62094B00225A62E0
:10366000074B00229A62064B0A22DA62044801F0F4
:10367000FFFB0346002B01D0FEF704FF00BF80BD17
:10368000880000200030014080B500AF174B184A79
:103690001A60164B4FF482725A60144B00229A60E3
:1036A000124B0022DA60114B00221A610F4B0022EC
:1036B0005A610E4B4FF400729A610C4B0022DA6192
:1036C0000A4B00221A62094B00225A62074B002261
:1036D0009A62064B0A22DA62044801F0C9FB0346EB
:1036E000002B01D0FEF7CEFE00BF80BDE000002021
:1036F0000038004080B582B000AF104B5B690F4AC4
:1037000043F0010353610D4B5B6903F001037B60E0
:103710007B68002200210D2000F00BFC0D2000F042
:1037200024FC002200210F2000F003FC0F2000F0F9
:103730001CFC00BF0837BD4680BD00BF0010024022
:1037400080B588B000AF07F1100300221A605A60FC
:103750009A60DA60284B9B69274A43F02003936103
:10376000254B9B6903F02003FB60FB68224B9B69A0
:10377000214A43F0040393611F4B9B6903F0040348
:10378000BB60BB681C4B9B691B4A43F008039361F9
:10379000194B9B6903F008037B607B68002240F2B1
:1037A0000341164800F06EFF00224FF4E061144818
:1037B00000F068FF40F203433B6101237B6100237B
:1037C000BB610223FB6107F1100319460B4800F0AF
:1037D000D5FD4FF4E0633B6101237B610023BB61B6
:1037E0000223FB6107F110031946054800F0C6FDEE
:1037F00000BF2037BD4680BD00100240000C0140D4
:103800000008014080B485B000AF154B9B69144A95
:1038100043F001039361124B9B6903F00103BB600A
:10382000BB680F4BDB690E4A43F08053D3610C4BEE
:10383000DB6903F080537B607B680A4B5B68FB604D
:10384000FB6823F0E063FB60FB6843F00073FB6000
:10385000044AFB68536000BF1437BD4680BC704704
:10386000001002400000014080B58AB000AF7860CF
:1038700007F1180300221A605A609A60DA607B68C8
:103880001B685D4A934256D15C4B9B695B4A43F48B
:1038900080539361594B9B6903F480537B617B692F
:1038A000564B9B69554A43F004039361534B9B6904
:1038B00003F004033B613B69A023BB610223FB616E
:1038C00003237B6207F1180319464D4800F056FDAB
:1038D0004023BB610023FB6100233B6207F1180317
:1038E0001946474800F04AFD464B474A1A60454B87
:1038F00010225A60434B00229A60424B8022DA60C9
:10390000404B00221A613F4B00225A613D4B00227E
:103910009A613C4B0022DA613A4800F041FB0346D1
:10392000002B01D0FEF7AEFD7B68364A9A64354A1B
:103930007B6853625CE07B681B68344A934257D1D2
:103940002E4BDB692D4A43F48043D3612B4BDB695B
:1039500003F48043FB60FB68284B9B69274A43F0D4
:1039600008039361254B9B6903F00803BB60BB68A8
:103970004FF42043BB610223FB6103237B6207F109
:1039800018031946224800F0F9FC4FF48043BB614C
:103990000023FB6100233B6207F1180319461C4812
:1039A00000F0ECFC1B4B1C4A1A601A4B10225A60A8
:1039B000184B00229A60174B8022DA60154B0022C8
:1039C0001A61144B00225A61124B00229A61114B6A
:1039D0000022DA610F4800F0E3FA0346002B01D021
:1039E000FEF750FD7B680B4A9A640A4A7B68536273
:1039F00000BF2837BD4680BD0030014000100240A6
:103A0000000801403801002030000240003800402A
:103A1000000C01407C0100205800024080B400AF3F
:103A200000BFFDE780B400AF00BFFDE780B400AF8A
:103A300000BFFDE780B400AF00BFFDE780B400AF7A
:103A400000BFFDE780B400AF00BFBD4680BC70473B
:103A500080B400AF00BFBD4680BC704780B400AFEB
:103A600000BFBD4680BC704780B500AF00F04AF98A
:103A700000BF80BD80B500AF024800F04BFB00BF27
:103A800080BD00BF3801002080B500AF024800F0C3
:103A900041FB00BF80BD00BF7C01002080B400AFAF
:103AA00001231846BD4680BC704780B582B000AF88
:103AB0007860396001F036FF034616221A604FF035
:103AC000FF3318460837BD4680BD80B582B000AFD1
:103AD00078604FF0FF317868FFF7E7FF00BFFDE740
:103AE00080B586B000AFF860B9607A6000237B6172
:103AF0000AE0AFF300800146BB685A1CBA60CAB244
:103B00001A707B6901337B617A697B689A42F0DBCA
:103B10007B6818461837BD4680BD80B586B000AFBB
:103B2000F860B9607A6000237B6109E0BB685A1CC9
:103B3000BA601B781846AFF300807B6901337B6164
:103B40007A697B689A42F1DB7B6818461837BD4674
:103B500080BD80B483B000AF78604FF0FF3318466B
:103B60000C37BD4680BC704780B483B000AF78602E
:103B700039603B684FF400525A60002318460C37F6
:103B8000BD4680BC704780B483B000AF786001232D
:103B900018460C37BD4680BC704780B485B000AF76
:103BA000F860B9607A60002318461437BD4680BCBF
:103BB0007047000080B586B000AF7860144A154B9E
:103BC000D31A7B617B693B61134B1B68002B02D1CD
:103BD000114B124A1A60104B1A687B6813443A69F9
:103BE0009A4207D201F09EFE03460C221A604FF063
:103BF000FF3309E0084B1B68FB60074B1A687B68C2
:103C00001344054A1360FB6818461837BD4680BD4B
:103C100000500020000400002C020020800300203F
:103C200080B400AF00BFBD4680BC7047FFF7F8FF0F
:103C30000B480C490C4A002302E0D458C45004330A
:103C4000C4188C42F9D3094A094C002301E01360DF
:103C50000432A242FBD301F06BFEFEF7AFF97047CE
:103C60000000002068000020F077000868000020B5
:103C700080030020FEE7000080B500AF084B1B6802
:103C8000074A43F010031360032000F047F90F20A8
:103C900000F008F8FFF7B6FD0023184680BD00BF0E
:103CA0000020024080B582B000AF7860124B1A68E5
:103CB000124B1B7819464FF47A73B3FBF1F3B2FB46
:103CC000F3F3184600F05FF90346002B01D00123FF
:103CD0000EE07B680F2B0AD8002279684FF0FF3086
:103CE00000F027F9064A7B681360002300E00123F7
:103CF00018460837BD4680BD00000020080000209F
:103D00000400002080B400AF054B1B781A46054B19
:103D10001B681344034A136000BFBD4680BC704754
:103D2000080000203002002080B400AF024B1B6866
:103D30001846BD4680BC70473002002080B584B074
:103D400000AF7860FFF7F0FFB8607B68FB60FB684E
:103D5000B3F1FF3F05D00A4B1B781A46FB681344AA
:103D6000FB6000BFFFF7E0FF0246BB68D31AFA68AA
:103D70009A42F7D800BF00BF1037BD4680BD00BFD4
:103D80000800002080B485B000AF78607B6803F045
:103D90000703FB600C4BDB68BB60BA684FF6FF03A0
:103DA0001340BB60FB681A02BB68134343F0BF6358
:103DB00043F40033BB60044ABB68D36000BF1437D0
:103DC000BD4680BC704700BF00ED00E080B400AF8E
:103DD000044BDB681B0A03F007031846BD4680BC92
:103DE000704700BF00ED00E080B483B000AF034631
:103DF000FB7197F90730002B0BDBFB7903F01F02F7
:103E0000064997F907305B09012000FA02F241F8F0
:103E1000232000BF0C37BD4680BC704700E100E0A6
:103E200080B483B000AF03463960FB7197F9073067
:103E3000002B0ADB3B68DAB20C4997F90730120114
:103E4000D2B20B4483F800230AE03B68DAB2084997
:103E5000FB7903F00F03043B1201D2B20B441A7634
:103E600000BF0C37BD4680BC704700BF00E100E0DA
:103E700000ED00E080B489B000AFF860B9607A600E
:103E8000FB6803F00703FB61FB69C3F10703042B25
:103E900028BF0423BB61FB690433062B02D9FB69ED
:103EA000033B00E000237B614FF0FF32BB6902FA65
:103EB00003F3DA43BB681A407B699A404FF0FF3145
:103EC0007B6901FA03F3D9437B680B40134318461F
:103ED0002437BD4680BC704780B582B000AF7860A3
:103EE0007B68013BB3F1807F01D301230FE00A4AD5
:103EF0007B68013B53600F214FF0FF30FFF790FFCD
:103F0000054B00229A60044B07221A6000231846D2
:103F10000837BD4680BD00BF10E000E080B582B02C
:103F200000AF78607868FFF72DFF00BF0837BD4607
:103F300080BD80B586B000AF0346B9607A60FB7380
:103F400000237B61FFF742FF78617A68B96878697E
:103F5000FFF790FF024697F90F3011461846FFF71A
:103F60005FFF00BF1837BD4680BD80B582B000AF8F
:103F70000346FB7197F907301846FFF735FF00BF7E
:103F80000837BD4680BD80B582B000AF78607868E4
:103F9000FFF7A2FF034618460837BD4680BD000064
:103FA00080B485B000AF78600023FB607B68002B95
:103FB00001D1012343E07B681B681A46224B13445E
:103FC000224AA2FB03231B099A007B681A647B68C0
:103FD0001F4ADA637B68022283F821207B681B6812
:103FE0001B68FB60FB6823F47F5323F03003FB6006
:103FF0007B685A687B689B681A437B68DB681A4356
:104000007B681B691A437B685B691A437B689B6901
:104010001A437B68DB691343FA681343FB607B68D0
:104020001B68FA681A607B6800229A637B68012229
:1040300083F821207B68002283F820200023184683
:104040001437BD4680BC7047F8FFFDBFCDCCCCCC4B
:104050000000024080B586B000AFF860B9607A60B9
:104060003B600023FB75FB6893F82030012B01D1E6
:1040700002234BE0FB68012283F82020FB6893F8C1
:104080002130DBB2012B3AD1FB68022283F82120D8
:10409000FB6800229A63FB681B681A68FB681B6850
:1040A00022F001021A603B687A68B968F86800F08B
:1040B00037F9FB68DB6A002B08D0FB681B681A68BD
:1040C000FB681B6842F00E021A600FE0FB681B6879
:1040D0001A68FB681B6822F004021A60FB681B6800
:1040E0001A68FB681B6842F00A021A60FB681B68CA
:1040F0001A68FB681B6842F001021A6005E0FB6861
:10410000002283F820200223FB75FB7D1846183718
:10411000BD4680BD80B584B000AF78607B68DB6B46
:104120001B68FB607B681B681B68BB607B681B6C43
:1041300004229A40FB681340002B4FD0BB6803F069
:104140000403002B4AD07B681B681B6803F0200324
:10415000002B07D17B681B681A687B681B6822F0FC
:1041600004021A607B681B68664A934229D07B6808
:104170001B68654A934222D07B681B68634A93425E
:104180001AD07B681B68624A934212D07B681B6816
:10419000604A93420AD07B681B685F4A934202D10F
:1041A0004FF480030EE04FF080630BE04FF4802368
:1041B00008E04FF4804305E04FF4806302E04023C1
:1041C00000E00423554A53607B68DB6A002B00F053
:1041D00094807B68DB6A786898478EE07B681B6C0C
:1041E00002229A40FB681340002B56D0BB6803F0B4
:1041F0000203002B51D07B681B681B6803F020036F
:10420000002B0BD17B681B681A687B681B6822F047
:104210000A021A607B68012283F821207B681B68F0
:10422000384A934229D07B681B68374A934222D090
:104230007B681B68354A93421AD07B681B68344AF6
:10424000934212D07B681B68324A93420AD07B6843
:104250001B68314A934202D14FF400130EE04FF035
:1042600000730BE04FF4003308E04FF4005305E017
:104270004FF4007302E0202300E00223274A53603A
:104280007B68002283F820207B689B6A002B34D057
:104290007B689B6A786898472FE07B681B6C0822D4
:1042A0009A40FB681340002B28D0BB6803F008033A
:1042B000002B23D07B681B681A687B681B6822F080
:1042C0000E021A607B681A6C7B68DB6B012101FAB5
:1042D00002F25A607B6801229A637B68012283F8AC
:1042E00021207B68002283F820207B681B6B002B39
:1042F00004D07B681B6B7868984700BF00BF1037FD
:10430000BD4680BD080002401C0002403000024053
:1043100044000240580002406C000240000002408D
:1043200080B485B000AFF860B9607A603B60FB682C
:104330001A6CFB68DB6B012101FA02F25A60FB6820
:104340001B683A685A60FB685B68102B08D1FB68F1
:104350001B687A689A60FB681B68BA68DA6007E0D5
:10436000FB681B68BA689A60FB681B687A68DA6049
:1043700000BF1437BD4680BC7047000080B48BB0CE
:1043800000AF7860396000237B6200233B6269E103
:1043900001227B6A02FA03F3FB613B681B68FA693E
:1043A0001340BB61BA69FB699A4240F058813B688F
:1043B0005B689A4A93425ED0984A934275D8984A6D
:1043C000934258D0964A93426FD8964A934252D01D
:1043D000944A934269D8944A93424CD0924A934269
:1043E00063D8924A934246D0904A93425DD8122BAA
:1043F0002AD8122B59D801A252F823F0774400088A
:104400005144000863440008A5440008AB44000878
:10441000AB440008AB440008AB440008AB440008C0
:10442000AB440008AB440008AB440008AB440008B0
:10443000AB440008AB440008AB440008AB440008A0
:10444000594400086D440008794A934213D02CE087
:104450003B68DB683B6229E03B68DB6804333B6216
:1044600024E03B68DB6808333B621FE03B68DB68A5
:104470000C333B621AE03B689B68002B02D104239B
:104480003B6213E03B689B68012B05D108233B622C
:104490007B68FA691A6109E008233B627B68FA6964
:1044A0005A6103E000233B6200E000BFBB69FF2BC1
:1044B00001D87B6801E07B6804337B61BB69FF2B1B
:1044C00002D87B6A9B0002E07B6A083B9B003B6151
:1044D0007B691A680F213B6901FA03F3DB431A4039
:1044E000396A3B6901FA03F31A437B691A603B6836
:1044F0005B6803F08053002B00F0B1804D4B9B694B
:104500004C4A43F0010393614A4B9B6903F001035A
:10451000BB60BB68484A7B6A9B08023352F8233071
:10452000FB607B6A03F003039B000F2202FA03F394
:10453000DB43FA681340FB607B68404A934213D028
:104540007B683F4A93420DD07B683E4A934207D036
:104550007B683D4A934201D1032306E0042304E033
:10456000022302E0012300E000237A6A02F0030242
:1045700092009340FA681343FB602F497B6A9B08C3
:104580000233FA6841F823203B685B6803F4801328
:10459000002B06D02D4B9A682C49BB6913438B60C6
:1045A00006E02A4B9A68BB69DB43284913408B60BD
:1045B0003B685B6803F40013002B06D0234BDA68DA
:1045C0002249BB691343CB6006E0204BDA68BB6924
:1045D000DB431E491340CB603B685B6803F4003348
:1045E000002B06D0194B5A681849BB6913434B601E
:1045F00006E0164B5A68BB69DB43144913404B6015
:104600003B685B6803F48033002B21D00F4B1A68A2
:104610000E49BB6913430B6021E000BF000032105C
:1046200000003110000022100000211000001210C4
:10463000000011100010024000000140000801407D
:10464000000C014000100140001401400004014032
:104650000B4B1A68BB69DB43094913400B607B6A4B
:1046600001337B623B681A687B6A22FA03F3002BF2
:104670007FF48EAE00BF00BF2C37BD4680BC7047B4
:104680000004014080B483B000AF78600B467B80AB
:1046900013467B707B78002B03D07A887B681A6185
:1046A00003E07B881A047B681A6100BF0C37BD46A3
:1046B00080BC704780B586B000AF78607B68002B07
:1046C00001D1012372E27B681B6803F00103002B18
:1046D00000F08780924B5B6803F00C03042B0CD036
:1046E0008F4B5B6803F00C03082B12D18C4B5B687B
:1046F00003F48033B3F5803F0BD1894B1B6803F47F
:104700000033002B6CD07B685B68002B68D10123E1
:104710004CE27B685B68B3F5803F06D1804B1B6839
:104720007F4A43F4803313602EE07B685B68002B84
:104730000CD17B4B1B687A4A23F480331360784B8F
:104740001B68774A23F4802313601DE07B685B6855
:10475000B3F5A02F0CD1724B1B68714A43F4802330
:1047600013606F4B1B686E4A43F4803313600BE099
:104770006B4B1B686A4A23F480331360684B1B68D9
:10478000674A23F4802313607B685B68002B13D097
:10479000FFF7CAFA386108E0FFF7C6FA02463B693C
:1047A000D31A642B01D9032300E25D4B1B6803F489
:1047B0000033002BF0D014E0FFF7B6FA386108E0C0
:1047C000FFF7B2FA02463B69D31A642B01D90323DF
:1047D000ECE1534B1B6803F40033002BF0D100E0F5
:1047E00000BF7B681B6803F00203002B63D04C4BB7
:1047F0005B6803F00C03002B0BD0494B5B6803F0A4
:104800000C03082B1CD1464B5B6803F48033002B50
:1048100016D1434B1B6803F00203002B05D07B68C5
:104820001B69012B01D00123C0E13D4B1B6823F024
:10483000F8027B685B69DB00394913430B603AE09F
:104840007B681B69002B20D0364B01221A60FFF7D2
:104850006BFA386108E0FFF767FA02463B69D31A42
:10486000022B01D90323A1E12D4B1B6803F00203A6
:10487000002BF0D02A4B1B6823F0F8027B685B69A1
:10488000DB00274913430B6015E0264B00221A601A
:10489000FFF74AFA386108E0FFF746FA02463B693B
:1048A000D31A022B01D9032380E11D4B1B6803F0AF
:1048B0000203002BF0D17B681B6803F00803002B78
:1048C0003AD07B689B69002B19D0174B01221A60E4
:1048D000FFF72AFA386108E0FFF726FA02463B693B
:1048E000D31A022B01D9032360E10D4B5B6A03F05D
:1048F0000203002BF0D0012000F09CFA1CE00A4BD0
:1049000000221A60FFF710FA38610FE0FFF70CFA87
:1049100002463B69D31A022B08D9032346E100BFA4
:10492000001002400000424280044242924B5B6A07
:1049300003F00203002BE9D17B681B6803F004033A
:10494000002B00F0A6800023FB758B4BDB6903F086
:104950008053002B0DD1884BDB69874A43F080538D
:10496000D361854BDB6903F08053BB60BB680123D7
:10497000FB75824B1B6803F48073002B18D17F4BAF
:104980001B687E4A43F480731360FFF7CDF93861EA
:1049900008E0FFF7C9F902463B69D31A642B01D935
:1049A000032303E1754B1B6803F48073002BF0D0E5
:1049B0007B68DB68012B06D16F4B1B6A6E4A43F0A4
:1049C000010313622DE07B68DB68002B0CD16A4B7E
:1049D0001B6A694A23F001031362674B1B6A664A2C
:1049E00023F0040313621CE07B68DB68052B0CD109
:1049F000614B1B6A604A43F0040313625E4B1B6AFF
:104A00005D4A43F0010313620BE05B4B1B6A5A4A99
:104A100023F001031362584B1B6A574A23F0040327
:104A200013627B68DB68002B15D0FFF77DF93861D6
:104A30000AE0FFF779F902463B69D31A41F288325E
:104A4000934201D90323B1E04B4B1B6A03F00203ED
:104A5000002BEED014E0FFF767F938610AE0FFF7AA
:104A600063F902463B69D31A41F28832934201D975
:104A700003239BE0404B1B6A03F00203002BEED1A3
:104A8000FB7D012B05D13C4BDB693B4A23F0805376
:104A9000D3617B68DB69002B00F08780364B5B6855
:104AA00003F00C03082B61D07B68DB69022B46D135
:104AB000334B00221A60FFF737F9386108E0FFF73F
:104AC00033F902463B69D31A022B01D903236DE067
:104AD000294B1B6803F00073002BF0D17B681B6A25
:104AE000B3F5803F08D1244B5B6823F400327B6828
:104AF0009B68214913434B601F4B5B6823F474127E
:104B00007B68196A7B685B6A0B431B4913434B60E4
:104B10001B4B01221A60FFF707F9386108E0FFF725
:104B200003F902463B69D31A022B01D903233DE066
:104B3000114B1B6803F00073002BF0D035E0104BD5
:104B400000221A60FFF7F0F8386108E0FFF7ECF890
:104B500002463B69D31A022B01D9032326E0064BF8
:104B60001B6803F00073002BF0D11EE07B68DB694B
:104B7000012B07D1012319E0001002400070004012
:104B8000600042420B4B5B68FB60FB6803F48032C1
:104B90007B681B6A9A4206D1FB6803F470127B683B
:104BA0005B6A9A4201D0012300E0002318461837BF
:104BB000BD4680BD0010024080B584B000AF786073
:104BC00039607B68002B01D10123D0E06A4B1B6860
:104BD00003F007033A689A4210D9674B1B6823F029
:104BE000070265493B6813430B60634B1B6803F086
:104BF00007033A689A4201D00123B8E07B681B683A
:104C000003F00203002B20D07B681B6803F0040331
:104C1000002B05D0594B5B68584A43F4E06353605E
:104C20007B681B6803F00803002B05D0534B5B68BF
:104C3000524A43F460535360504B5B6823F0F002D8
:104C40007B689B684D4913434B607B681B6803F08E
:104C50000103002B40D07B685B68012B07D1474BD9
:104C60001B6803F40033002B15D101237FE07B6820
:104C70005B68022B07D1414B1B6803F00073002BCC
:104C800009D1012373E03D4B1B6803F00203002BA5
:104C900001D101236BE0394B5B6823F003027B6891
:104CA0005B68364913434B60FFF73EF8F8600AE053
:104CB000FFF73AF80246FB68D31A41F28832934272
:104CC00001D9032353E02D4B5B6803F00C027B6892
:104CD0005B689B009A42EBD1274B1B6803F00703EC
:104CE0003A689A4210D2244B1B6823F007022249EB
:104CF0003B6813430B60204B1B6803F007033A68C3
:104D00009A4201D0012332E07B681B6803F0040360
:104D1000002B08D0194B5B6823F4E0627B68DB68EA
:104D2000164913434B607B681B6803F00803002B94
:104D300009D0124B5B6823F460527B681B69DB006F
:104D40000E4913434B6000F021F802460B4B5B68A1
:104D50001B0903F00F030A49CB5C22FA03F3094A4B
:104D60001360094B1B681846FEF79CFF002318468A
:104D70001037BD4680BD00BF002002400010024039
:104D800010730008000000200400002080B487B0E9
:104D900000AF0023FB600023BB6000237B61002386
:104DA0007B6000233B611E4B5B68FB60FB6803F08C
:104DB0000C03042B02D0082B03D027E0194B3B61D6
:104DC00027E0FB689B0C03F00F03174AD35C7B6062
:104DD000FB6803F48033002B10D0114B5B685B0C35
:104DE00003F00103114AD35CBB607B680D4A03FBEF
:104DF00002F2BB68B2FBF3F37B6104E07B680C4A10
:104E000002FB03F37B617B693B6102E0054B3B6185
:104E100000BF3B6918461C37BD4680BC704700BFC9
:104E20000010024000127A0020730008307300085E
:104E300000093D0080B485B000AF78600A4B1B6864
:104E40000A4AA2FB03235B0A7A6802FB03F3FB60B6
:104E500000BFFB685A1EFA60002BF9D100BF00BFEB
:104E60001437BD4680BC704700000020D34D62104F
:104E700080B582B000AF78607B68002B01D1012340
:104E800076E07B685B6A002B08D17B685B68B3F5D2
:104E9000827F09D07B680022DA6105E07B6800220E
:104EA0001A617B6800225A617B6800229A627B68E3
:104EB00093F85130DBB2002B06D17B68002283F8D7
:104EC00050207868FEF7D0FC7B68022283F85120DE
:104ED0007B681B681A687B681B6822F040021A60B6
:104EE0007B685B6803F482727B689B6803F404430D
:104EF0001A437B68DB6803F400631A437B681B6911
:104F000003F002031A437B685B6903F001031A4351
:104F10007B689B6903F400731A437B68DB6903F0C9
:104F200038031A437B681B6A03F0800342EA0301DB
:104F30007B689B6A03F400527B681B680A431A6013
:104F40007B689B691A0C7B681B6802F004025A603C
:104F50007B681B68DA697B681B6822F40062DA618F
:104F60007B6800225A657B68012283F85120002368
:104F700018460837BD4680BD80B588B000AFF860E0
:104F8000B9603B601346FB80FEF7CEFEF861FB88FC
:104F90007B83FB6893F85130DBB2012B01D00223F5
:104FA0002AE1BB68002B02D0FB88002B01D1012332
:104FB00022E1FB6893F85030012B01D102231BE161
:104FC000FB68012283F85020FB68032283F85120FC
:104FD000FB6800225A65FB68BA681A63FB68FA88A6
:104FE0009A86FB68FA88DA86FB6800229A63FB6877
:104FF00000229A87FB680022DA87FB6800225A6445
:10500000FB6800221A64FB689B68B3F5004F0FD160
:10501000FB681B681A68FB681B6822F040021A6074
:10502000FB681B681A68FB681B6842F480421A60C0
:10503000FB681B681B6803F04003402B07D0FB682C
:105040001B681A68FB681B6842F040021A60FB6824
:10505000DB68B3F5006F52D1FB685B68002B02D0B0
:105060007B8B012B45D1FB681B6B1A88FB681B6887
:10507000DA60FB681B6B9A1CFB681A63FB68DB8EAB
:105080009BB2013B9AB2FB68DA8632E0FB681B6890
:105090009B6803F00203022B12D1FB681B6B1A887A
:1050A000FB681B68DA60FB681B6B9A1CFB681A6361
:1050B000FB68DB8E9BB2013B9AB2FB68DA8618E094
:1050C000FEF732FE0246FB69D31A3A689A4203D8C9
:1050D0003B68B3F1FF3F02D13B68002B09D1FB686D
:1050E000012283F85120FB68002283F8502003231B
:1050F00082E0FB68DB8E9BB2002BC7D153E0FB68DC
:105100005B68002B02D07B8B012B47D1FB681A6BAD
:10511000FB681B680C3312781A70FB681B6B5A1CF7
:10512000FB681A63FB68DB8E9BB2013B9AB2FB689B
:10513000DA8633E0FB681B689B6803F00203022BEE
:1051400013D1FB681A6BFB681B680C3312781A705A
:10515000FB681B6B5A1CFB681A63FB68DB8E9BB2F7
:10516000013B9AB2FB68DA8618E0FEF7DDFD0246E5
:10517000FB69D31A3A689A4203D83B68B3F1FF3F00
:1051800002D13B68002B09D1FB68012283F8512032
:10519000FB68002283F8502003232DE0FB68DB8EA0
:1051A0009BB2002BC6D1FA693968F86800F0F6F9AD
:1051B0000346002B02D0FB6820225A65FB689B68DF
:1051C000002B0AD100237B61FB681B68DB687B61D5
:1051D000FB681B689B687B617B69FB68012283F825
:1051E0005120FB68002283F85020FB685B6D002B88
:1051F00001D0012300E0002318462037BD4680BDC2
:1052000080B584B000AFF860B9601346FB80FB68DE
:1052100093F85130DBB2012B01D0022397E0BB6839
:10522000002B02D0FB88002B01D101238FE0FB680B
:1052300093F85030012B01D1022388E0FB68012252
:1052400083F85020FB68032283F85120FB6800227A
:105250005A65FB68BA681A63FB68FA889A86FB6825
:10526000FA88DA86FB6800229A63FB6800225A6497
:10527000FB6800221A64FB6800229A87FB68002200
:10528000DA87FB689B68B3F5004F0FD1FB681B689A
:105290001A68FB681B6822F040021A60FB681B68F2
:1052A0001A68FB681B6842F480421A60FB689B6CBA
:1052B000294ADA62FB689B6C284A9A62FB689B6CFD
:1052C000274A1A63FB689B6C00225A63FB68986C40
:1052D000FB681B6B1946FB681B680C331A46FB689E
:1052E000DB8E9BB2FEF7B6FE0346002B0BD0FB68AD
:1052F0005B6D43F01002FB685A65FB68002283F87F
:105300005020012323E0FB681B681B6803F0400367
:10531000402B07D0FB681B681A68FB681B6842F0CB
:1053200040021A60FB68002283F85020FB681B686B
:105330005A68FB681B6842F020025A60FB681B68D1
:105340005A68FB681B6842F002025A600023184644
:105350001037BD4680BD00BF2F5400088953000898
:105360004B54000880B483B000AF786000BF0C37A6
:10537000BD4680BC704780B483B000AF786000BF8A
:105380000C37BD4680BC704780B586B000AF7860F2
:105390007B685B6A7B61FEF7C7FC38617B681B68D2
:1053A0001B6803F02003202B3BD07B691B685A68E5
:1053B0007B691B6822F020025A607B691B685A686F
:1053C0007B691B6822F002025A603A69642178699D
:1053D00000F0E4F80346002B05D07B695B6D43F0D9
:1053E00020027B695A657B699B68002B0AD10023E8
:1053F000FB607B691B68DB68FB607B691B689B68E3
:10540000FB60FB687B690022DA867B69012283F8F6
:1054100051207B695B6D002B03D07869FFF7ABFFF0
:1054200002E07869FEF786F81837BD4680BD80B582
:1054300084B000AF78607B685B6AFB60F868FFF758
:1054400091FF00BF1037BD4680BD80B584B000AF6E
:1054500078607B685B6AFB60FB681B685A68FB6866
:105460001B6822F003025A60FB685B6D43F0100278
:10547000FB685A65FB68012283F85120F868FFF742
:105480007AFF00BF1037BD4680BD000080B588B0F0
:1054900000AFF860B9603B601346FB71FEF744FC57
:1054A0000246BB6A9B1A3A681344FB61FEF73CFC58
:1054B000B861394B1B685B011B0DFA6902FB03F3F2
:1054C0007B6154E03B68B3F1FF3F50D0FEF72CFC0A
:1054D0000246BB69D31AFA699A4202D9FB69002BCA
:1054E0003DD1FB681B685A68FB681B6822F0E0022C
:1054F0005A60FB685B68B3F5827F11D1FB689B68DB
:10550000B3F5004F04D0FB689B68B3F5806F07D1FB
:10551000FB681B681A68FB681B6822F040021A606F
:10552000FB689B6AB3F5005F0FD1FB681B681A68C4
:10553000FB681B6822F400521A60FB681B681A683B
:10554000FB681B6842F400521A60FB68012283F872
:105550005120FB68002283F85020032317E07B6969
:10556000002B01D10023FB617B69013B7B61FB6860
:105570001B689A68BB681340BA689A420CBF012343
:105580000023DBB21A46FB799A429BD100231846CE
:105590002037BD4680BD00BF0000002080B586B02A
:1055A00002AFF860B9607A607B680093BB68012243
:1055B0000221F868FFF76AFF0346002B07D0FB685B
:1055C0005B6D43F02002FB685A65032313E07B68A0
:1055D0000093BB6800228021F868FFF757FF03465D
:1055E000002B07D0FB685B6D43F02002FB685A6517
:1055F000032300E0002318461037BD4680BD00009D
:10560000164B10B51C68236BB3B9182000F01EFAB6
:105610000246206320B95221114B124800F0B0F924
:105620001149124BC0E90013114B002183600B2379
:1056300083810120C2E90401216B0E480B694C698A
:1056400058430D4A02FB0400A3FB0232013340EB36
:105650000200C1E9043020F0004010BD1800002015
:1056600032730008497300080E33CDAB34126DE677
:10567000ECDE05002DF451582D7F954C002310B51C
:105680000446C0E90033C0E9043383608181436686
:10569000C2818361194608225C3000F0F4F80D4B9A
:1056A000246263620C4BA3620C4BE3620C4B2363DA
:1056B0000C4B9C4206D003F16802944202D0D033D6
:1056C0009C4205D104F15800BDE8104000F054B9E7
:1056D00010BD00BF01580008235800085B5800089F
:1056E0007F58000834020020024A0349034800F0B2
:1056F00069B800BF0C000020B95C00081C00002045
:1057000041680C4B10B59942044601D000F0D4FA20
:10571000A168094B994202D0204600F0CDFAE16819
:10572000064B994204D02046BDE8104000F0C4BAB0
:1057300010BD00BF340200209C02002004030020A2
:1057400010B50B4B0B4C0C4A20461A60042100226A
:10575000FFF794FF04F1680001220921FFF78EFF93
:1057600004F1D0000222BDE810401221FFF786BFED
:105770006C03002034020020E9560008014800F0C4
:10578000FCB800BF75030020014800F0F7B800BF67
:105790007503002010B50446FFF7F0FF236A1BB124
:1057A000BDE81040FFF7F0BF044B2362044B1B68B9
:1057B000002BF5D1FFF7C4FFF2E700BF0157000847
:1057C0006C0300202DE9F84307468846144600265E
:1057D000D4E90195B9F1010905D52468002CF7D168
:1057E0003046BDE8F883AB89012B07D9B5F90E30F7
:1057F000013303D029463846C04706436835E9E7F8
:1058000010B50C46B1F90E1000F068F80028ABBFD7
:10581000636DA3891B1823F48053ACBF6365A38118
:1058200010BD2DE9F0411F468B890546DB050C466E
:10583000164605D502230022B1F90E1000F03CF8FF
:10584000A389324623F48053A38128463B46B4F90A
:105850000E10BDE8F04100F053B810B50C46B1F998
:105860000E1000F029F8431CA38915BF606523F4CE
:10587000805343F48053A38118BFA38110BDB1F9B5
:105880000E1000F009B803460244934200D170475D
:1058900003F8011BF9E7000038B50023054D044665
:1058A00008462B60FEF755F9431C02D12B6803B163
:1058B000236038BD7003002038B504460846114601
:1058C0000022054D2A601A46FEF767F9431C02D1F3
:1058D0002B6803B1236038BD7003002038B504463F
:1058E000084611460022054D2A601A46FEF7F8F8D0
:1058F000431C02D12B6803B1236038BD7003002024
:1059000038B50446084611460022054D2A601A465D
:10591000FEF703F9431C02D12B6803B1236038BDA5
:1059200070030020014B1868704700BF180000206A
:1059300070B500260C4D0D4C641BA410A64209D175
:1059400001F0CCFC00260A4D0A4C641BA410A642B0
:1059500005D170BD55F8043B98470136EEE755F880
:10596000043B98470136F2E7E8770008E87700083B
:10597000E8770008EC770008704770477047000030
:105980001FB514461A46094B05461B68D8684CB12A
:10599000074BCDE9013400912B46064900F0B4F9DC
:1059A00000F0D4F9044B1C46F3E700BF18000020B8
:1059B000A1730008AE730008DC73000838B5054613
:1059C000002940D051F8043C0C1F002BB8BFE4184C
:1059D00000F0E6F81C4A136833B963601460284687
:1059E000BDE8384000F0E2B8A34208D92068211889
:1059F0008B4201BF19685B6809182160EDE71A4600
:105A00005B680BB1A342FAD911685018A0420BD1C0
:105A100020680144501883421160E0D118685B6827
:105A2000084410605360DAE702D90C232B60D6E7F4
:105A3000206821188B4201BF19685B680918216032
:105A400063605460CBE738BD7C030020024B014605
:105A5000186800F025B800BF1800002070B50F4E80
:105A60000C463168054611B900F060F930602146F6
:105A7000284600F05BF9431C03D14FF0FF34204669
:105A800070BDC41C24F00304A042F8D0211A28469B
:105A900000F04CF90130F2D1EFE700BF78030020AD
:105AA0002DE9F843CD1C25F0030508350C2D38BF32
:105AB0000C25002D064601DBA94204D90C233360D6
:105AC0000020BDE8F883DFF8D48000F069F8D8F84A
:105AD00000301C4644BB29463046FFF7BFFF431C3D
