:020000040800F2
:100000000050002085300008752E00087D2E000865
:10001000852E00088D2E0008952E00080000000097
:100020000000000000000000000000009D2E0008FD
:10003000A92E000800000000B52E0008C12E0008FF
:10004000CD300008CD300008CD300008CD3000089C
:10005000CD300008CD300008CD300008CD3000088C
:10006000CD300008CD300008CD300008CD3000087C
:10007000CD300008CD2E0008CD300008E12E00085C
:10008000CD300008CD300008CD300008CD3000085C
:10009000CD300008CD300008CD300008CD3000084C
:1000A000CD300008CD300008CD300008CD3000083C
:1000B000CD300008CD300008CD300008CD3000082C
:1000C000CD300008CD300008CD300008CD3000081C
:1000D000CD300008CD300008CD300008CD3000080C
:1000E000CD300008CD300008CD3000080000000001
:1000F0000000000000000000000000000000000000
:0C01000000000000000000005FF808F1A3
:10010C0010B5054C237833B9044B13B10448AFF345
:10011C0000800123237010BD8C0000200000000023
:10012C00E46A000808B5034B1BB103490348AFF35D
:10013C00008008BD0000000090000020E46A000868
:10014C0080F0004002E000BF81F0004142001FBF80
:10015C005FEA410392EA030F7FEA226C7FEA236C89
:10016C006AD04FEA1262D2EB1363C1BFD21841407E
:10017C0048404140B8BF5B42192B88BF704710F014
:10018C00004F40F4000020F07F4018BF404211F0B7
:10019C00004F41F4000121F07F4118BF494292EA1F
:1001AC00030F3FD0A2F1010241FA03FC10EB0C004B
:1001BC00C3F1200301FA03F100F0004302D54942D8
:1001CC0060EB4000B0F5000F13D3B0F1807F06D385
:1001DC0040084FEA310102F10102FE2A51D2B1F17D
:1001EC00004F40EBC25008BF20F0010040EA030072
:1001FC007047490040EB0000013A28BFB0F5000FF2
:10020C00EDD2B0FA80FCACF1080CB2EB0C0200FAA7
:10021C000CF0AABF00EBC25052421843BCBFD040F6
:10022C001843704792F0000F81F4000106BF80F470
:10023C0000000132013BB5E74FEA41037FEA226C33
:10024C0018BF7FEA236C21D092EA030F04D092F0FE
:10025C00000F08BF0846704790EA010F1CBF002032
:10026C00704712F07F4F04D1400028BF40F000408F
:10027C00704712F100723CBF00F50000704700F0AF
:10028C00004343F0FE4040F4000070477FEA2262D6
:10029C0016BF08467FEA23630146420206BF5FEAA7
:1002AC00412390EA010F40F4800070474FF00003A7
:1002BC0004E000BF10F0004348BF40425FEA000C6E
:1002CC0008BF704743F0964301464FF000001CE016
:1002DC0050EA010208BF70474FF000030AE000BF6C
:1002EC0050EA010208BF704711F0004302D54042AA
:1002FC0061EB41015FEA010C02BF8446014600201C
:10030C0043F0B64308BFA3F18053A3F50003BCFA36
:10031C008CF2083AA3EBC25310DB01FA02FC6344E3
:10032C0000FA02FCC2F12002BCF1004F20FA02F2EA
:10033C0043EB020008BF20F00100704702F12002DD
:10034C0001FA02FCC2F1200250EA4C0021FA02F23E
:10035C0043EB020008BF20EADC7070474FF0FF0C43
:10036C001CEAD0521EBF1CEAD15392EA0C0F93EA3E
:10037C000C0F6FD01A4480EA010C400218BF5FEAE0
:10038C0041211ED04FF0006343EA501043EA511153
:10039C00A0FB01310CF00040B1F5000F3EBF49004D
:1003AC0041EAD3715B0040EA010062F17F02FD2A51
:1003BC001DD8B3F1004F40EBC25008BF20F0010034
:1003CC00704790F0000F0CF0004C08BF49024CEA4B
:1003DC00502040EA51207F3AC2BFD2F1FF0340EADD
:1003EC00C250704740F400004FF00003013A5DDC4E
:1003FC0012F1190FDCBF00F000407047C2F100028F
:10040C00410021FA02F1C2F1200200FA02FC5FEA7B
:10041C00310040F1000053EA4C0308BF20EADC70C5
:10042C00704792F0000F00F0004C02BF400010F437
:10043C00000F013AF9D040EA0C0093F0000F01F0E4
:10044C00004C02BF490011F4000F013BF9D041EA06
:10045C000C018FE70CEAD15392EA0C0F18BF93EA08
:10046C000C0F0AD030F0004C18BF31F0004CD8D132
:10047C0080EA010000F00040704790F0000F17BFB9
:10048C0090F0004F084691F0000F91F0004F14D0FF
:10049C0092EA0C0F01D142020FD193EA0C0F03D157
:1004AC004B0218BF084608D180EA010000F000405A
:1004BC0040F0FE4040F40000704740F0FE4040F435
:1004CC00400070474FF0FF0C1CEAD0521EBF1CEAD4
:1004DC00D15392EA0C0F93EA0C0F69D0A2EB0302F2
:1004EC0080EA010C49024FEA402037D04FF080538C
:1004FC0043EA111143EA10130CF000408B4238BF51
:10050C005B0042F17D024FF4000C8B4224BF5B1A5E
:10051C0040EA0C00B3EB510F24BFA3EB510340EAAC
:10052C005C00B3EB910F24BFA3EB910340EA9C005A
:10053C00B3EBD10F24BFA3EBD10340EADC001B01CA
:10054C0018BF5FEA1C1CE0D1FD2A3FF650AF8B426E
:10055C0040EBC25008BF20F0010070470CF0004C7B
:10056C004CEA50207F32C2BFD2F1FF0340EAC250A6
:10057C00704740F400004FF00003013A37E792F067
:10058C00000F00F0004C02BF400010F4000F013AC5
:10059C00F9D040EA0C0093F0000F01F0004C02BFC0
:1005AC00490011F4000F013BF9D041EA0C0195E729
:1005BC000CEAD15392EA0C0F08D142027FF47DAFC2
:1005CC0093EA0C0F7FF470AF084676E793EA0C0FB2
:1005DC0004D14B023FF44CAF08466EE730F0004CB0
:1005EC0018BF31F0004CCAD130F000427FF45CAF40
:1005FC0031F000437FF43CAF5FE700BF4FF0FF3CAE
:10060C0006E000BF4FF0010C02E000BF4FF0010C00
:10061C004DF804CD4FEA40024FEA41037FEA226CC9
:10062C0018BF7FEA236C11D001B052EA530C18BFEB
:10063C0090EA010F58BFB2EB030088BFC81738BF50
:10064C006FEAE17018BF40F0010070477FEA226C3E
:10065C0002D15FEA402C05D17FEA236CE4D15FEA3A
:10066C00412CE1D05DF8040B704700BF844608466E
:10067C006146FFE70FB5FFF7C9FF002848BF10F12F
:10068C00000F0FBD4DF808EDFFF7F4FF0CBF012074
:10069C0000205DF808FB00BF4DF808EDFFF7EAFFFE
:1006AC0034BF012000205DF808FB00BF4DF808EDB9
:1006BC00FFF7E0FF94BF012000205DF808FB00BFAE
:1006CC004DF808EDFFF7D2FF94BF012000205DF834
:1006DC0008FB00BF4DF808EDFFF7C8FF34BF012041
:1006EC0000205DF808FB00BF4FEA40024FEA4103CF
:1006FC007FEA226C02D15FEA402C08D17FEA236C9E
:10070C0002D15FEA412C02D14FF0000070474FF04C
:10071C00010070474FEA4002B2F1FE4F0FD34FF089
:10072C009E03B3EB12620DD94FEA002343F0004352
:10073C0010F0004F23FA02F018BF404270474FF000
:10074C000000704712F1610F01D1420205D110F087
:10075C00004008BF6FF0004070474FF0000070473A
:10076C0080B584B000AFF860084611461A460346BF
:10077C007B810B463B811346FB8079893A89FB8848
:10078C00F86800F0D3FE00BF1037BD4680BD90B5B1
:10079C0087B002AFF860084611461A4603467B81C3
:1007AC000B463B811346FB8079893889FC883B8C4E
:1007BC00BA8C0192009323460246F86800F080FF41
:1007CC0000BF1437BD4690BD80B584B000AFF86053
:1007DC00084611461A4603467B810B463B8113465D
:1007EC00FB80FB88B7F90820B7F90A10F868FFF707
:1007FC00B7FF00BF1037BD4680BD80B58AB000AFD3
:10080C00F860084611461A4603467B810B463B812D
:10081C001346FB80B7F93020B7F90830D31A83EAB6
:10082C00E372A2EBE372B7F90610B7F90A30CB1AF0
:10083C00002BB8BF5B429A42CCBF01230023DBB232
:10084C00BB84B7F92430002B0BD07B897B843B898C
:10085C007B817B8C3B81FB883B843B8EFB803B8C80
:10086C003B86B7F90A20B7F906309A420BDD7B8933
:10087C00FB83FB887B81FB8BFB803B89BB833B8EA3
:10088C003B81BB8B3B86FA887B89D31A9BB27B83DB
:10089C00B7F93020B7F90830D31A002BB8BF5B4238
:1008AC003B83B7F91A30DA0F13445B10FB84B7F9AA
:1008BC000820B7F930309A4201DA012301E04FF0F9
:1008CC00FF33FB822DE0B7F92430002B08D0BB8E10
:1008DC00B7F90A20B7F90810F868FFF775FF07E0B9
:1008EC00BB8EB7F90820B7F90A10F868FFF76CFF50
:1008FC00FA8C3B8BD31A9BB2FB84B7F92630002BB6
:10090C0009DA3A89FB8A13449BB23B81FA8C7B8BC4
:10091C0013449BB2FB84B7F90A309BB201339BB2F0
:10092C007B81B7F90A20B7F906309A42CBDD00BFBC
:10093C0000BF2837BD4680BD90B587B002AFF860C8
:10094C00084611461A4603467B810B463B811346EB
:10095C00FB803A89FB8813449BB2013B9BB21BB2D0
:10096C00B7F90A40B7F90800B7F90A103A8C0192A6
:10097C00009323460246F868FFF73FFF00BF143789
:10098C00BD4690BD80B58AB002AFF86008461146EE
:10099C001A4603467B810B463B811346FB80FB8842
:1009AC00C3F101039BB2FB830123BB83FB881A4673
:1009BC00D203D31A5B009BB27B8300233B83FB885F
:1009CC00FB823B8BBB82FB8A7B82B7F92C309BB2C0
:1009DC0001339BB2BB85A9E0B7F91E30002B0EDBAF
:1009EC00B7F916309BB2013B9BB2FB827B8B023377
:1009FC009BB27B83FA8B7B8B13449BB2FB83B7F943
:100A0C0018309BB201339BB23B83BB8B02339BB23E
:100A1C00BB83FA8BBB8B13449BB2FB83B7F91620B9
:100A2C00B7F918309A423BDB97F8283003F00103F2
:100A3C00002B17D07A893B8B13449BB219B23A899D
:100A4C00FB8AD31A9BB218B2FB8A5B009AB2BB8D9D
:100A5C0013449BB21AB23B8E009313460246F868BD
:100A6C00FFF76AFF97F8283003F00203002B17D02A
:100A7C007A893B8BD31A9BB219B23A89FB8AD31A67
:100A8C009BB218B2FB8A5B009AB2BB8D13449BB22B
:100A9C001AB23B8E009313460246F868FFF74CFFE0
:100AAC00B7F91620B7F912309A423DD097F8283092
:100ABC0003F00103002B17D07A897B8A13449BB275
:100ACC0019B23A89BB8AD31A9BB218B2BB8A5B00A3
:100ADC009AB2BB8D13449BB21AB23B8E0093134651
:100AEC000246F868FFF728FF97F8283003F0020356
:100AFC00002B17D07A897B8AD31A9BB219B23A8908
:100B0C00BB8AD31A9BB218B2BB8A5B009AB2BB8D5C
:100B1C0013449BB21AB23B8E009313460246F868FC
:100B2C00FFF70AFFFB8A7B823B8BBB82B7F918204D
:100B3C00B7F916309A42FFF64FAF00BF00BF20370F
:100B4C00BD4680BD80B588B004AFF860084611463C
:100B5C001A4603467B810B463B811346FB803A8940
:100B6C00FB88D31A9BB21AB2FB885B009BB2013391
:100B7C009BB218B2B7F90A103B8B00930346F86886
:100B8C00FFF7DAFEB7F90600B7F90820B7F90A1033
:100B9C003B8B029300230193032300930346F868D5
:100BAC00FFF7F0FE00BF1037BD4680BDB0B58CB06E
:100BBC0002AFF860084611461A4603467B810B4685
:100BCC003B811346FB8000237B626AE000233B627F
:100BDC005FE07A6A3B6A13441846FFF76BFB0346E7
:100BEC0034491846FFF7BAFB034633491846FFF75A
:100BFC0069FC0346FB61B7F90A301846FFF75AFB4C
:100C0C000446B7F906301846FFF754FB0546F86959
:100C1C0005F0F4F8034619462846FFF79FFB0346F8
:100C2C0019462046FFF792FA03461846FFF772FD65
:100C3C000346BB61B7F908301846FFF73BFB044687
:100C4C00B7F938301846FFF735FB0546F86905F05B
:100C5C000DF9034619462846FFF780FB0346194653
:100C6C002046FFF773FA03461846FFF753FD034679
:100C7C007B61BB6919B27B691AB27B6C18B2B7F88D
:100C8C00483000930346F868FFF75CFF3B6A01337A
:100C9C003B623A6A3B6C9A429BDB7A6AFB6B13446D
:100CAC007B627B6AB3F5B47F90DB00BF00BF283753
:100CBC00BD46B0BDD00F49400000344380B582B072
:100CCC0000AF78607B6858687B681B8900221946E6
:100CDC0002F0FEFE00BF0837BD4680BD80B582B075
:100CEC0000AF78607B6858687B681B8901221946C5
:100CFC0002F0EEFE00BF0837BD4680BD80B582B065
:100D0C0000AF78607B68D8687B681B8A0022194624
:100D1C0002F0DEFE00BF0837BD4680BD80B582B054
:100D2C0000AF78607B68D8687B681B8A0122194603
:100D3C0002F0CEFE00BF0837BD4680BD80B582B044
:100D4C0000AF78607B6858697B681B8B0022194662
:100D5C0002F0BEFE00BF0837BD4680BD80B582B034
:100D6C0000AF78607B6858697B681B8B0122194641
:100D7C0002F0AEFE00BF0837BD4680BD80B582B024
:100D8C0000AF78600B46FB707B681868F91C4FF05D
:100D9C00FF33012203F016FB00BF0837BD4680BDB0
:100DAC0080B582B000AF7860786802F0EDF900BFD2
:100DBC000837BD4680BD80B582B000AF78600B4669
:100DCC00FB707868FFF79AFF7868FFF777FFFB787E
:100DDC0019467868FFF7D2FF7868FFF77FFF00BFEE
:100DEC000837BD4680BD80B582B000AF78600B4639
:100DFC00FB707868FFF792FF7868FFF75FFFFB786E
:100E0C0019467868FFF7BAFF7868FFF767FF00BFED
:100E1C000837BD4680BD80B584B000AF78600B4606
:100E2C007B807868FFF77AFF7868FFF747FF7B884D
:100E3C001B0A9BB2FB737B88BB73FB7B19467868E0
:100E4C00FFF79CFFBB7B19467868FFF797FF786824
:100E5C00FFF744FF00BF1037BD4680BD80B582B0A0
:100E6C0000AF78607868FFF779FF6420FFF798FF90
:100E7C007868FFF763FF6420FFF792FF7868FFF74D
:100E8C006DFF6420FFF78CFF00BF0837BD4680BDA7
:100E9C0080B584B000AFF860084611461A46034688
:100EAC007B810B463B811346FB802A21F868FFF7B8
:100EBC0082FF7B891B0A9BB2DBB21946F868FFF7ED
:100ECC0092FF7B89DBB21946F868FFF78CFFFB8831
:100EDC001B0A9BB2DBB21946F868FFF784FFFB884C
:100EEC00DBB21946F868FFF77EFF2B21F868FFF795
:100EFC0062FF3B891B0A9BB2DBB21946F868FFF70D
:100F0C0072FF3B89DBB21946F868FFF76CFF3B8B2D
:100F1C001B0A9BB2DBB21946F868FFF764FF3B8BE8
:100F2C00DBB21946F868FFF75EFF2C21F868FFF773
:100F3C0042FF00BF1037BD4680BD80B582B000AF08
:100F4C0078607868FFF78AFFEF217868FFF733FF46
:100F5C00EB217868FFF72FFF14217868FFF743FF28
:100F6C00FE217868FFF727FFEF217868FFF723FF52
:100F7C00EB217868FFF71FFF14217868FFF733FF28
:100F8C0084217868FFF717FF40217868FFF72BFF63
:100F9C0085217868FFF70FFFFF217868FFF723FFA3
:100FAC0086217868FFF707FFFF217868FFF71BFFA2
:100FBC0087217868FFF7FFFEFF217868FFF713FFA2
:100FCC0088217868FFF7F7FE0A217868FFF70BFF96
:100FDC0089217868FFF7EFFE21217868FFF703FF7E
:100FEC008A217868FFF7E7FE00217868FFF7FBFE9F
:100FFC008B217868FFF7DFFE80217868FFF7F3FE1E
:10100C008C217868FFF7D7FE01217868FFF7EBFE9B
:10101C008D217868FFF7CFFE01217868FFF7E3FE9A
:10102C008E217868FFF7C7FEFF217868FFF7DBFE9B
:10103C008F217868FFF7BFFEFF217868FFF7D3FE9A
:10104C00B6217868FFF7B7FE00217868FFF7CBFE72
:10105C0020217868FFF7C7FE36217868FFF7ABFED2
:10106C0008217868FFF7BFFE3A217868FFF7A3FEE6
:10107C0005217868FFF7B7FE90217868FFF79BFE93
:10108C0008217868FFF7AFFE08217868FFF7ABFE00
:10109C0008217868FFF7A7FE08217868FFF7A3FE00
:1010AC0008217868FFF79FFE08217868FFF79BFE00
:1010BC00BD217868FFF77FFE06217868FFF793FE65
:1010CC00BC217868FFF777FE00217868FFF78BFE6C
:1010DC00FF217868FFF76FFE60217868FFF783FEC9
:1010EC0001217868FFF77FFE04217868FFF77BFE0B
:1010FC00C3217868FFF75FFE13217868FFF773FE52
:10110C00C4217868FFF757FE13217868FFF76BFE50
:10111C00C9217868FFF74FFE22217868FFF763FE3C
:10112C00BE217868FFF747FE11217868FFF75BFE58
:10113C00E1217868FFF73FFE10217868FFF753FE36
:10114C000E217868FFF74FFEDF217868FFF733FE3A
:10115C0021217868FFF747FE0C217868FFF743FEE2
:10116C0002217868FFF73FFEF0217868FFF723FE35
:10117C0045217868FFF737FE09217868FFF733FEC1
:10118C0008217868FFF72FFE08217868FFF72BFEFF
:10119C0026217868FFF727FE2A217868FFF723FEBF
:1011AC00F1217868FFF707FE43217868FFF71BFEF3
:1011BC0070217868FFF717FE72217868FFF713FE2D
:1011CC0036217868FFF70FFE37217868FFF70BFEA2
:1011DC006F217868FFF707FEF2217868FFF7EBFDC7
:1011EC0045217868FFF7FFFD09217868FFF7FBFDC3
:1011FC0008217868FFF7F7FD08217868FFF7F3FD01
:10120C0026217868FFF7EFFD2A217868FFF7EBFDC0
:10121C00F3217868FFF7CFFD43217868FFF7E3FDF2
:10122C0070217868FFF7DFFD72217868FFF7DBFD2E
:10123C0036217868FFF7D7FD37217868FFF7D3FDA3
:10124C006F217868FFF7CFFDED217868FFF7B3FDCC
:10125C001B217868FFF7C7FD0B217868FFF7C3FDEA
:10126C00AE217868FFF7A7FD77217868FFF7BBFD03
:10127C00CD217868FFF79FFD63217868FFF7B3FDF8
:10128C0070217868FFF797FD07217868FFF7ABFDB1
:10129C0007217868FFF7A7FD04217868FFF7A3FD05
:1012AC000E217868FFF79FFD0F217868FFF79BFDF3
:1012BC0009217868FFF797FD07217868FFF793FD00
:1012CC0008217868FFF78FFD03217868FFF78BFD05
:1012DC00E8217868FFF76FFD34217868FFF783FD0C
:1012EC0062217868FFF767FD18217868FFF77BFDAE
:1012FC000D217868FFF777FD71217868FFF773FD92
:10130C00ED217868FFF76FFD70217868FFF76BFDB2
:10131C0070217868FFF767FD18217868FFF763FD87
:10132C000F217868FFF75FFD71217868FFF75BFD8F
:10133C00EF217868FFF757FD70217868FFF753FDB0
:10134C0070217868FFF74FFD63217868FFF733FD54
:10135C0018217868FFF747FD11217868FFF743FDE6
:10136C0071217868FFF73FFDF1217868FFF73BFDAD
:10137C0070217868FFF737FD70217868FFF733FD2F
:10138C0018217868FFF72FFD13217868FFF72BFDE4
:10139C0071217868FFF727FDF3217868FFF723FDAB
:1013AC0070217868FFF71FFD70217868FFF71BFD2F
:1013BC0064217868FFF7FFFC28217868FFF713FD9C
:1013CC0029217868FFF70FFDF1217868FFF70BFDF5
:1013DC0001217868FFF707FDF1217868FFF703FD1D
:1013EC0000217868FFF7FFFC07217868FFF7FBFC0A
:1013FC0066217868FFF7DFFC3C217868FFF7F3FC87
:10140C0000217868FFF7EFFCCD217868FFF7EBFC43
:10141C0067217868FFF7E7FC45217868FFF7E3FC64
:10142C0045217868FFF7DFFC10217868FFF7DBFCBB
:10143C0000217868FFF7D7FC00217868FFF7D3FC10
:10144C0000217868FFF7CFFC67217868FFF7B3FCC1
:10145C0000217868FFF7C7FC3C217868FFF7C3FCD4
:10146C0000217868FFF7BFFC00217868FFF7BBFC10
:10147C0000217868FFF7B7FC01217868FFF7B3FC0F
:10148C0054217868FFF7AFFC10217868FFF7ABFCAC
:10149C0032217868FFF7A7FC98217868FFF7A3FC46
:1014AC0074217868FFF787FC10217868FFF79BFCA4
:1014BC0085217868FFF797FC80217868FFF793FC0B
:1014CC0000217868FFF78FFC00217868FFF78BFC10
:1014DC004E217868FFF787FC00217868FFF783FCC2
:1014EC0098217868FFF767FC3E217868FFF77BFC52
:1014FC0007217868FFF777FC35217868FFF75BFCEC
:10150C0021217868FFF757FC11217868FFF753FC0D
:10151C007820FFF745FC29217868FFF74CFC142054
:10152C00FFF73EFC00BF0837BD4680BD80B586B0D6
:10153C0002AFF860084611461A4603467B810B46FB
:10154C003B811346FB807B89EF2B11D83B89EF2B1A
:10155C000ED878893A8979893B8900930346F868D3
:10156C00FFF796FCFB881946F868FFF754FC00E07F
:10157C0000BF1037BD4680BD80B58AB002AFF860A1
:10158C00084611461A4603467B810B463B8113469F
:10159C00FB7197F828301A467B8913449BB2013BA8
:1015AC0098B297F829301A463B8913449BB2013BF9
:1015BC009BB23A89798900930346F868FFF768FC77
:1015CC000023FB612DE0FA6AFB79203B97F8291088
:1015DC0001FB03F31946FB690B445B0013441B88A6
:1015EC007B610023BB6113E07A69BB6902FA03F3E8
:1015FC0003F40043002B01D03B8E00E0BB8E7B82BA
:10160C007B8A1946F868FFF706FCBB690133BB619E
:10161C0097F828301A46BB699342E5D3FB6901332E
:10162C00FB6197F829301A46FB699342CBD300BF74
:10163C0000BF2037BD4680BDB0B588B004AFF860A0
:10164C007B600B467B8113463B812FE07B8997F8AF
:10165C0020201344F02B0DDD00237B8197F82130E3
:10166C001A463B8913443B813B8997F8212013444C
:10167C00F02B20DC7B681D783A897C89BB8D039329
:10168C003B8D02936B4607F1200103C983E80300ED
:10169C002B462146F868FFF76FFF97F820301A4663
:1016AC007B8913447B817B6801337B607B681B786F
:1016BC00002BCBD100E000BF00BF1037BD46B0BD42
:1016CC0080B588B002AFF860084611461A4603464A
:1016DC007B810B463B811346FB807B89EF2B3BD8F0
:1016EC003B89EF2B38D87A89FB881344F02B03DD28
:1016FC007B89C3F1F003FB803A893B8C1344F02BBC
:10170C0003DD3B89C3F1F0033B847A89FB881344E6
:10171C009BB2013B98B23A893B8C13449BB2013B80
:10172C009BB23A89798900930346F868FFF7B0FBBE
:10173C0000237B6107E0BB8C1946F868FFF76BFB55
:10174C007B6901337B61FB883A8C02FB03F31A46FD
:10175C007B699342EFD300E000BF1837BD4680BDD4
:10176C0080B584B002AF78600B467B807B88019398
:10177C00F0230093F023002200217868FFF7A0FFEC
:10178C0000BF0837BD4680BD80B586B002AFF8609B
:10179C00084611461A4603467B810B463B8113468D
:1017AC00FB807B89EF2B36D83B89EF2B33D87A899A
:1017BC00FB881344F02B30DC3A893B8B1344F02B21
:1017CC002DDC7A89FB8813449BB2013B98B23A8991
:1017DC003B8B13449BB2013B9BB23A8979890093B2
:1017EC000346F868FFF754FBF868FFF797FAF868B8
:1017FC00FFF764FA0C4B01221A70FB681868FB881F
:10180C003A8B02FB03F39BB25B009BB21A46F9695D
:10181C0002F01CFF04E000BF02E000BF00E000BFCC
:10182C001037BD4680BD00BFA800002080B588B031
:10183C0006AF01F047FC01F0CBF801F0A1F901F083
:10184C0079F901F00BF901F03FF99A4B9A4A1A60B9
:10185C00984B9A4A5A60974B4FF480621A81954B79
:10186C00964ADA60934B02221A82924B934A5A613F
:10187C00904B01221A83924B924A1A60904B924AD7
:10188C005A608F4B4FF480621A818D4B8E4ADA600E
:10189C008B4B4FF400721A82894B8B4A5A61884BDE
:1018AC004FF480721A838348FFF747FB8448FFF795
:1018BC0044FB00217F48FFF753FF00218048FFF7CE
:1018CC004FFF4FF6FF7304930223039302230293FB
:1018DC00062301936C2300935323782278217548B7
:1018EC00FFF764F94FF6FF7304930223039302236B
:1018FC00029307230193732300935A2378227821B0
:10190C006C48FFF753F94FF6FF73049302230393CC
:10191C000223029308230193782300935F237822F8
:10192C0078216448FFF742F94FF6FF7304930223C2
:10193C00039302230293062301936C2300935323F6
:10194C00782278215E48FFF731F94FF6FF73049344
:10195C00022303930223029307230193732300931F
:10196C005A23782278215648FFF720F94FF6FF7357
:10197C0004930223039302230293082301937823F5
:10198C0000935F23782278214D48FFF70FF94F4BD6
:10199C0078221A604E4B78221A604E4B46221A60FF
:1019AC004D4B5A221A604D4B20221A604B4B1B6830
:1019BC00DA0F13445B101A46494B1A60434B1B68F1
:1019CC00484A1360424B1B68474A1360474B11222D
:1019DC001A7001F0CFFB0346454A1360454B0022B9
:1019EC001A60454B00221A60444B00221A60434B8C
:1019FC001B68434A1360424B1B68424A1360414BBD
:101A0C001B68414A1360414B4FF07E521A60404BA9
:101A1C001E221A603F4B00221A603F4B19221A609B
:101A2C003E4B00221A603D4B1B683D4AD25C2F4B4B
:101A3C001A7000F07DF80A2001F0A6FB2D4B1B68F4
:101A4C0001332C4A136001F095FB7860284B1B681E
:101A5C007A68D31AB3F57A7FEBD3264B1B68264AE8
:101A6C001360244B00221A60214A7B681360224BBE
:101A7C001B681A462B492C4803F0E8F80023019305
:101A8C00102300933C23782200210A48FEF77FFEA6
:101A9C00002303934FF6FF730293244A6B4692E89C
:101AAC00030083E80300204B782200210148FFF754
:101ABC00C3FDBEE7E4010020AC000020000C014097
:101ACC000002002004010020000801401C0200203C
:101ADC002002002024020020280200202C020020DA
:101AEC003002002034020020380200203C0200208A
:101AFC00400200204402002048020020680200201E
:101B0C0064020020600200205C0200206C020020B5
:101B1C007002002074020020780200207C02002059
:101B2C0008000020FC6A00084C0200200000002085
:101B3C0090B58FB006AF974B1A68974B1B68D31AAA
:101B4C00FB61964B1A68964B1B68D31ABB61954B7D
:101B5C001A68954B1B68D31A1846FEF7ABFB034665
:101B6C007B61FB6903FB03F2BB6903FB03F31344C7
:101B7C001846FEF79FFB0346184604F025F938611A
:101B8C0079693869FEF7A6FD0346002B2DD04FF07E
:101B9C0000013869FEF79EFD0346002B25D0F8693D
:101BAC00FEF788FB034679691846FEF7D7FB034618
:101BBC0039691846FEF786FC03461846FEF7AAFD5F
:101BCC000346FB61B869FEF775FB03467969184655
:101BDC00FEF7C4FB034639691846FEF773FC03464F
:101BEC001846FEF797FD0346BB616F4B1A686D4BA9
:101BFC00196800230493002303934FF6FF73029399
:101C0C00BB690193FB6900930B462321232000F051
:101C1C003DFE614B1B689BB2233B99B2604B1B682A
:101C2C009BB2233B9AB2614B01934623009346230C
:101C3C005F48FFF7A9FD584B1B689BB2233B99B239
:101C4C00574B1B689BB2233B9AB2584B01934623CC
:101C5C00009346235748FFF797FD00BF564B1B7860
:101C6C00DBB2002BFAD1554B1B684FF07E51184656
:101C7C00FEF712FD0346002B58D0514B1B6818463B
:101C8C00FEF718FB034619464FF07E50FEF71AFC80
:101C9C0003461A46494B1B6819461046FEF756FA7E
:101CAC0003461A46454B1A60444B1B684FF07E5155
:101CBC001846FEF70FFD0346002B03D03F4B4FF0A9
:101CCC007E521A603F4B1A683F4B1B68D31A18465A
:101CDC00FEF7F0FA0246394B1B6819461046FEF720
:101CEC003DFB03461846FEF715FD0246364B1B68B6
:101CFC001344294A1360354B1A68354B1B68D31AA9
:101D0C001846FEF7D7FA02462C4B1B6819461046AC
:101D1C00FEF724FB03461846FEF7FCFC02462C4B50
:101D2C001B6813441E4A136000F089BD294B1B78B5
:101D3C00152B00F2848501A252F823F0E71E00084F
:101D4C00471F00089B1F0008412000089320000833
:101D5C00F120000843210008A121000835220008C9
:101D6C00F3220008452300080324000899240008E6
:101D7C0057250008A925000867260008FD2600083D
:101D8C00E51D0008F7270008492800084928000825
:101D9C00492800081C0200203402002020020020E8
:101DAC0038020020300200202C020020800200208B
:101DBC00E401002000020020A80000206C0200209A
:101DCC0070020020640200205C02002068020020E7
:101DDC00600200203C020020854B1A68854B1B6872
:101DEC005B00D31AFB60844B1A68824B1B685B0048
:101DFC00D31ABB60814B1B681422934240DA804B90
:101E0C001B68804A1360804B1B68804A136002F089
:101E1C001DFE0346FA6893FBF2F2F96801FB02F22D
:101E2C009A1AFB68D90F0B445B105B4213447B601E
:101E3C0002F00CFE0346BA6893FBF2F2B96801FBA0
:101E4C0002F29A1ABB68D90F0B445B105B42134425
:101E5C003B606F4B1A687B6813446E4A13606E4B81
:101E6C001A683B6813446D4A13606D4B4FF00002C7
:101E7C001A60624B1B680133604A136000F0DFBCD0
:101E8C005E4B00221A605E4B1B685E4A13605E4B11
:101E9C001B685E4A13605E4B1B685E4A13605E4BA8
:101EAC001B685E4A13605E4B4FF000021A605D4B7C
:101EBC001B6801335B4A13605A4B1A685A4B1B68F8
:101ECC009A4202DB574B00221A60564B1B68574A4A
:101EDC00D25C574B1A7000F0B2BC494B1B68494A94
:101EEC001360494B1B68494A1360494B1B68494AAC
:101EFC001360494B1A68404B19683E4B1B68CB1A50
:101F0C00D31A464A1360464B4FF000021A60454BF9
:101F1C001B680133434A1360424B1A68424B1B68DF
:101F2C009A4202DB3F4B00221A603E4B1B683F4A31
:101F3C00D25C3F4B1A7000F082BC314B1B68314AAB
:101F4C001360314B1B68314A1360314B1B68314AAB
:101F5C001360314B1B68314A1360314B4FF0000258
:101F6C001A60304B1B6801332E4A13602D4B1A68D4
:101F7C002D4B1B689A4202DB2A4B00221A60294B1C
:101F8C001B682A4AD25C2A4B1A7000F058BC1C4BB6
:101F9C001B681C4A13601C4B1B681C4A13601C4BAF
:101FAC001A68134B1968134B1B68CB1AD31A194AAE
:101FBC001360194B1B68194A1360194B4FF0000240
:101FCC001A60184B1B680133164A1360154B1A68BC
:101FDC00154B1B689A4202DB124B00221A60114B04
:101FEC001B68124AD25C124B1A7000F028BC00BF5E
:101FFC00240200202C020020280200207402002061
:10200C00340200205C020020380200206002002014
:10201C001C02002064020020200200206802002024
:10202C006C0200207C0200207802002008000020B6
:10203C003C0200206C4B1B686C4A13606C4B1B6899
:10204C006C4A13606C4B1B686C4A13606C4B1B68BE
:10205C006C4A13606C4B4FF000021A606B4B1B68A0
:10206C0001336A4A1360694B1A68694B1B689A42C0
:10207C0002DB664B00221A60644B1B68654AD25C1B
:10208C00654B1A70DBE3584B1B68584A1360584B6E
:10209C001B68584A1360584B1B68584A13605F4BB7
:1020AC001A685F4B1B68D21A554B1B681344554A70
:1020BC001360554B4FF000021A60544B1B680133F0
:1020CC00524A1360514B1A68514B1B689A4202DBFF
:1020DC004E4B00221A604D4B1B684E4AD25C4E4B45
:1020EC001A70ACE3404B1B68404A1360404B1B68B2
:1020FC00404A1360404B1B68404A1360404B1B68BE
:10210C00404A1360404B4FF000021A603F4B1B6873
:10211C0001333E4A13603D4B1A683D4B1B689A4293
:10212C0002DB3A4B00221A60384B1B68394AD25CEE
:10213C00394B1A7083E32C4B1B682C4A13602C4BC5
:10214C001B682C4A1360374B1A68354B1B68D21A24
:10215C00294B1B681344294A1360294B1B68294AD5
:10216C001360294B4FF000021A60284B1B68013397
:10217C00264A1360254B1A68254B1B689A4202DBD2
:10218C00224B00221A60214B1B68224AD25C224B44
:10219C001A7054E3144B1B68144A1360144B1B68DD
:1021AC00144A1360144B1B68144A1360144B1B68BD
:1021BC00144A1360144B4FF000021A60134B1B6847
:1021CC000133124A1360114B1A68114B1B689A4267
:1021DC0002DB0E4B00221A600C4B1B680D4AD25CC2
:1021EC000D4B1A702BE300BF340200205C02002060
:1021FC0038020020600200201C0200206402002033
:10220C0020020020680200206C0200207C020020CA
:10221C0078020020080000203C0200202802002048
:10222C002C02002024020020874B1B68874A136075
:10223C00874B1B68874A1360874B1B681846FEF751
:10224C0039F80446854B1A68854B1B68D31A184617
:10225C00FEF730F8034683491846FEF77FF803462D
:10226C0019462046FDF770FF03461846FEF752FA52
:10227C0003467D4A13607D4B1B681846FEF71AF81F
:10228C0004467B4B1A68764B1B68D31A1846FEF72C
:10229C0011F8034673491846FEF760F803461946D1
:1022AC002046FDF751FF03461846FEF733FA034666
:1022BC00704A1360704B4FF000021A606F4B1B6832
:1022CC0001336E4A13606D4B1A686D4B1B689A4252
:1022DC0002DB6A4B00221A60684B1B68694AD25CAD
:1022EC00694B1A70ABE2584B1B68584A1360584B39
:1022FC001B68584A1360584B1B685B4A13605B4B56
:10230C001B685C4A13605C4B4FF000021A605B4B1D
:10231C001B680133594A1360584B1A68584B1B6899
:10232C009A4202DB554B00221A60544B1B68554AEB
:10233C00D25C554B1A7082E2434B1B68434A1360C4
:10234C00434B1B68434A1360434B1B681846FDF70D
:10235C00B1FF0446414B1A68414B1B68D31A18460F
:10236C00FDF7A8FF03463F491846FDF7F7FF034664
:10237C0019462046FDF7EAFE03461846FEF7CAF951
:10238C000346394A1360394B1B681846FDF792FF18
:10239C000446374B1A68324B1B68D31A1846FDF7A4
:1023AC0089FF03462F491846FDF7D8FF0346194607
:1023BC002046FDF7C9FE03461846FEF7ABF9034667
:1023CC002C4A13602C4B4FF000021A602B4B1B68ED
:1023DC0001332A4A1360294B1A68294B1B689A420D
:1023EC0002DB264B00221A60244B1B68254AD25C68
:1023FC00254B1A7023E2144B1B68144A1360144BC0
:10240C001B68144A1360144B1B68174A1360174B54
:10241C001B68184A1360184B4FF000021A60174BD8
:10242C001B680133154A1360144B1A68144B1B6854
:10243C009A4202DB114B00221A60104B1B68114AA6
:10244C00D25C114B1A70FAE1340200205C020020BD
:10245C0038020020600200201C0200202402002010
:10246C002C0200203333333F640200202002002072
:10247C0028020020680200206C0200207C02002050
:10248C0078020020080000203C020020874B1B68CB
:10249C00874A1360874B1B68874A1360874B1B68FE
:1024AC001846FDF707FF0446854B1A68854B1B68D9
:1024BC00D31A1846FDF7FEFE034683491846FDF76E
:1024CC004DFF034619462046FDF73EFE03461846CF
:1024DC00FEF720F903467D4A13607D4B1B681846B6
:1024EC00FDF7E8FE04467B4B1A68764B1B68D31A43
:1024FC001846FDF7DFFE034673491846FDF72EFF1D
:10250C00034619462046FDF721FE03461846FEF702
:10251C0001F90346704A1360704B4FF000021A60C9
:10252C006F4B1B6801336E4A13606D4B1A686D4B11
:10253C001B689A4202DB6A4B00221A60684B1B68CC
:10254C00694AD25C694B1A7079E1584B1B68584A3E
:10255C001360584B1B68584A1360584B1B685B4AF6
:10256C0013605B4B1B685C4A13605C4B4FF00002C2
:10257C001A605B4B1B680133594A1360584B1A683D
:10258C00584B1B689A4202DB554B00221A60544B85
:10259C001B68554AD25C554B1A7050E1434B1B6873
:1025AC00434A1360434B1B68434A1360434B1B68FD
:1025BC001846FDF77FFE0446414B1A68414B1B68D9
:1025CC00D31A1846FDF776FE03463F491846FDF729
:1025DC00C5FE034619462046FDF7B8FD03461846CE
:1025EC00FEF798F80346394A1360394B1B681846B6
:1025FC00FDF760FE0446374B1A68324B1B68D31A42
:10260C001846FDF757FE03462F491846FDF7A6FE60
:10261C00034619462046FDF799FD03461846FEF77A
:10262C0079F803462C4A13602C4B4FF000021A60C9
:10263C002B4B1B6801332A4A1360294B1A68294B10
:10264C001B689A4202DB264B00221A60244B1B6843
:10265C00254AD25C254B1A70F1E0144B1B68144AC6
:10266C001360144B1B68144A1360144B1B68174AF5
:10267C001360174B1B68184A1360184B4FF000027D
:10268C001A60174B1B680133154A1360144B1A68F8
:10269C00144B1B689A4202DB114B00221A60104B40
:1026AC001B68114AD25C114B1A70C8E0340200202E
:1026BC005C02002038020020600200201C02002076
:1026CC00240200202C0200203333333F640200200C
:1026DC002002002028020020680200206C0200204A
:1026EC007C02002078020020080000203C02002020
:1026FC00554B1B68142293424BDA544B1B68544ABB
:10270C001360544B1B68544A136002F09FF9024645
:10271C00524B1968524B1B685B00CB1A92FBF3F1BE
:10272C0001FB03F3D21A4F4B1B681A444B4B19682D
:10273C004B4B1B68CB1AD90F0B445B105B421344F9
:10274C00494A136002F082F90246484B1968444B1F
:10275C001B685B00CB1A92FBF3F101FB03F3D21A5B
:10276C00434B1B681A44414B19683D4B1B68CB1AF1
:10277C00D90F0B445B105B4213443E4A13603E4B33
:10278C004FF000021A60304B1B6801332E4A136065
:10279C0055E02D4B00221A602C4B1B682C4A136001
:1027AC002C4B1B682C4A13602E4B1B682E4A136053
:1027BC002F4B1B682F4A13602F4B4FF000021A60EF
:1027CC002E4B1B6801332D4A13602C4B1A682C4B73
:1027DC001B689A4202DB294B00221A60274B1B68AC
:1027EC00284AD25C284B1A7029E0184B1B68184AEF
:1027FC001360184B1B68184A13601A4B1B681A4A53
:10280C0013601B4B1B681B4A13601B4B4FF00002E1
:10281C001A601A4B1B680133184A1360174B1A685D
:10282C00174B1B689A4202DB144B00221A60134BA5
:10283C001B68144AD25C144B1A7000E000BF00BF36
:10284C002437BD4690BD00BF740200203402002026
:10285C005C020020380200206002002024020020CC
:10286C002C0200201C020020640200202802002000
:10287C0020020020680200206C0200207C02002054
:10288C0078020020080000203C02002080B48FB0A9
:10289C0000AFF860B9607A603B6000237B6336E080
:1028AC0000233B632DE03A6BFB68D31A7B617A6B98
:1028BC00BB68D31A3B617B6903FB03F23B6903FBE7
:1028CC0003F31A447B6803FB03F39A420BDC314994
:1028DC007B6B462203FB02F23B6B1344B7F8482098
:1028EC0021F813200AE02B497B6B462203FB02F2F2
:1028FC003B6B1344B7F8502021F813203B6B01338A
:10290C003B633B6B452BCEDD7B6B01337B637B6B7E
:10291C00452BC5DDFA683B6C13447B62BA687B6C53
:10292C0013443B620023FB622AE00023BB6221E0DC
:10293C00BA6A7B6AD31AFB61FA6A3B6AD31ABB6127
:10294C00FB6903FB03F2BB6903FB03F31A443B680B
:10295C0003FB03F39A420ADC0E49FB6A462203FB93
:10296C0002F2BB6A13444FF6E07221F81320BB6AE3
:10297C000133BB62BB6A452BDADDFB6A0133FB62B8
:10298C00FB6A452BD1DD00BF00BF3C37BD4680BC88
:10299C00704700BF8002002080B582B000AF786025
:1029AC007B681B68074A934208D101224FF480616F
:1029BC00054801F08DF8054B00221A7000BF08374E
:1029CC00BD4680BD00300140000C0140A800002035
:1029DC0080B590B000AF07F11803282200211846EB
:1029EC0002F099F93B1D00221A605A609A60DA6075
:1029FC001A610123BB614FF48033FB6100233B62FE
:102A0C000123BB6202237B634FF48033BB634FF41F
:102A1C00E013FB6307F11803184601F071F8034645
:102A2C00002B01D000F00EF90F237B600223BB605A
:102A3C000023FB604FF480633B6100237B613B1DF3
:102A4C000221184601F0DEFA0346002B01D000F0FB
:102A5C00F9F800BF4037BD4680BD000080B500AF1F
:102A6C00174B184A1A60164B4FF482725A60144B6B
:102A7C0000229A60124B0022DA60114B00221A617C
:102A8C000F4B00225A610E4B4FF400729A610C4BA3
:102A9C000822DA610A4B00221A62094B00225A62A0
:102AAC00074B00229A62064B0A22DA62044801F0B4
:102ABC0005FC0346002B01D000F0C4F800BF80BD1C
:102ACC00AC0000200030014080B500AF174B184A15
:102ADC001A60164B4FF482725A60144B00229A60A3
:102AEC00124B0022DA60114B00221A610F4B0022AC
:102AFC005A610E4B4FF400729A610C4B0022DA6152
:102B0C000A4B00221A62094B00225A62074B002220
:102B1C009A62064B0A22DA62044801F0CFFB0346A4
:102B2C00002B01D000F08EF800BF80BD0401002006
:102B3C000038004080B582B000AF104B5B690F4A83
:102B4C0043F0010353610D4B5B6903F001037B60A0
:102B5C007B68002200210D2000F011FC0D2000F0FC
:102B6C002AFC002200210F2000F009FC0F2000F0AD
:102B7C0022FC00BF0837BD4680BD00BF00100240DC
:102B8C0080B588B000AF07F1100300221A605A60BC
:102B9C009A60DA60284B9B69274A43F020039361C3
:102BAC00254B9B6903F02003FB60FB68224B9B6960
:102BBC00214A43F0040393611F4B9B6903F0040308
:102BCC00BB60BB681C4B9B691B4A43F008039361B9
:102BDC00194B9B6903F008037B607B68002240F271
:102BEC000341164800F074FF00224FF4E0611448D2
:102BFC0000F06EFF40F203433B6101237B61002335
:102C0C00BB610223FB6107F1100319460B4800F06E
:102C1C00DBFD4FF4E0633B6101237B610023BB616F
:102C2C000223FB6107F110031946054800F0CCFDA7
:102C3C0000BF2037BD4680BD00100240000C014093
:102C4C000008014080B400AF72B600BF00BFFDE7C2
:102C5C0080B485B000AF154B9B69144A43F0010357
:102C6C009361124B9B6903F00103BB60BB680F4B74
:102C7C00DB690E4A43F08053D3610C4BDB6903F0E4
:102C8C0080537B607B680A4B5B68FB60FB6823F0BE
:102C9C00E063FB60FB6843F00073FB60044AFB6875
:102CAC00536000BF1437BD4680BC70470010024013
:102CBC000000014080B58AB000AF786007F11803BE
:102CCC0000221A605A609A60DA607B681B685D4A61
:102CDC00934256D15C4B9B695B4A43F4805393619E
:102CEC00594B9B6903F480537B617B69564B9B6901
:102CFC00554A43F004039361534B9B6903F004035F
:102D0C003B613B69A023BB610223FB6103237B6214
:102D1C0007F1180319464D4800F056FD4023BB61DE
:102D2C000023FB6100233B6207F118031946474857
:102D3C0000F04AFD464B474A1A60454B10225A6038
:102D4C00434B00229A60424B8022DA60404B0022B7
:102D5C001A613F4B00225A613D4B00229A613C4B59
:102D6C000022DA613A4800F041FB0346002B01D007
:102D7C00FFF768FF7B68364A9A64354A7B68536272
:102D8C005CE07B681B68344A934257D12E4BDB695D
:102D9C002D4A43F48043D3612B4BDB6903F480430E
:102DAC00FB60FB68284B9B69274A43F0080393613F
:102DBC00254B9B6903F00803BB60BB684FF42043B1
:102DCC00BB610223FB6103237B6207F118031946E5
:102DDC00224800F0F9FC4FF48043BB610023FB61F7
:102DEC0000233B6207F1180319461C4800F0ECFC69
:102DFC001B4B1C4A1A601A4B10225A60184B0022AB
:102E0C009A60174B8022DA60154B00221A61144B22
:102E1C0000225A61124B00229A61114B0022DA6196
:102E2C000F4800F0E3FA0346002B01D0FFF70AFF2E
:102E3C007B680B4A9A640A4A7B68536200BF283746
:102E4C00BD4680BD0030014000100240000801402A
:102E5C005C0100203000024000380040000C0140B2
:102E6C00A00100205800024080B400AF00BFFDE775
:102E7C0080B400AF00BFFDE780B400AF00BFFDE73A
:102E8C0080B400AF00BFFDE780B400AF00BFFDE72A
:102E9C0080B400AF00BFBD4680BC704780B400AFAB
:102EAC0000BFBD4680BC704780B400AF00BFBD46BC
:102EBC0080BC704780B500AF00F04AF900BF80BD00
:102ECC0080B500AF024800F04BFB00BF80BD00BFD7
:102EDC005C01002080B500AF024800F041FB00BF50
:102EEC0080BD00BFA001002080B400AF01231846B4
:102EFC00BD4680BC704780B582B000AF7860396049
:102F0C0001F058FF034616221A604FF0FF331846A3
:102F1C000837BD4680BD80B582B000AF78604FF0F9
:102F2C00FF317868FFF7E7FF00BFFDE780B586B09B
:102F3C0000AFF860B9607A6000237B610AE0AFF300
:102F4C0000800146BB685A1CBA60CAB21A707B6911
:102F5C0001337B617A697B689A42F0DB7B681846A7
:102F6C001837BD4680BD80B586B000AFF860B9603B
:102F7C007A6000237B6109E0BB685A1CBA601B783D
:102F8C001846AFF300807B6901337B617A697B68FB
:102F9C009A42F1DB7B6818461837BD4680BD80B479
:102FAC0083B000AF78604FF0FF3318460C37BD4646
:102FBC0080BC704780B483B000AF786039603B68E8
:102FCC004FF400525A60002318460C37BD4680BCA3
:102FDC00704780B483B000AF7860012318460C377B
:102FEC00BD4680BC704780B485B000AFF860B96056
:102FFC007A60002318461437BD4680BC7047000029
:10300C0080B586B000AF7860144A154BD31A7B613B
:10301C007B693B61134B1B68002B02D1114B124A8D
:10302C001A60104B1A687B6813443A699A4207D2AB
:10303C0001F0C0FE03460C221A604FF0FF3309E08A
:10304C00084B1B68FB60074B1A687B681344054AE6
:10305C001360FB6818461837BD4680BD0050002031
:10306C0000040000C8280020202A002080B400AFF3
:10307C0000BFBD4680BC7047FFF7F8FF0B480C49FA
:10308C000C4A002302E0D458C4500433C4188C42B8
:10309C00F9D3094A094C002301E013600432A2421F
:1030AC00FBD301F08DFEFEF7C1FB70470000002042
:1030BC008C0000203C7D00088C0000201C2A002085
:1030CC00FEE7000080B500AF084B1B68074A43F0D1
:1030DC0010031360032000F047F90F2000F008F8EC
:1030EC00FFF7B6FD0023184680BD00BF002002404C
:1030FC0080B582B000AF7860124B1A68124B1B7807
:10310C0019464FF47A73B3FBF1F3B2FBF3F31846A1
:10311C0000F05FF90346002B01D001230EE07B6821
:10312C000F2B0AD8002279684FF0FF3000F027F9F6
:10313C00064A7B681360002300E001231846083719
:10314C00BD4680BD240000202C000020280000205B
:10315C0080B400AF054B1B781A46054B1B68134413
:10316C00034A136000BFBD4680BC70472C00002092
:10317C00CC28002080B400AF024B1B681846BD461B
:10318C0080BC7047CC28002080B584B000AF78603C
:10319C00FFF7F0FFB8607B68FB60FB68B3F1FF3FA3
:1031AC0005D00A4B1B781A46FB681344FB6000BF22
:1031BC00FFF7E0FF0246BB68D31AFA689A42F7D8C9
:1031CC0000BF00BF1037BD4680BD00BF2C000020E3
:1031DC0080B485B000AF78607B6803F00703FB60B8
:1031EC000C4BDB68BB60BA684FF6FF031340BB6047
:1031FC00FB681A02BB68134343F0BF6343F400330C
:10320C00BB60044ABB68D36000BF1437BD4680BCAA
:10321C00704700BF00ED00E080B400AF044BDB68EA
:10322C001B0A03F007031846BD4680BC704700BF5D
:10323C0000ED00E080B483B000AF0346FB7197F95A
:10324C000730002B0BDBFB7903F01F02064997F9C3
:10325C0007305B09012000FA02F241F8232000BF7D
:10326C000C37BD4680BC704700E100E080B483B0F1
:10327C0000AF03463960FB7197F90730002B0ADB6E
:10328C003B68DAB20C4997F907301201D2B20B4401
:10329C0083F800230AE03B68DAB20849FB7903F0B3
:1032AC000F03043B1201D2B20B441A7600BF0C3749
:1032BC00BD4680BC704700BF00E100E000ED00E0BF
:1032CC0080B489B000AFF860B9607A60FB6803F035
:1032DC000703FB61FB69C3F10703042B28BF04231D
:1032EC00BB61FB690433062B02D9FB69033B00E08D
:1032FC0000237B614FF0FF32BB6902FA03F3DA4320
:10330C00BB681A407B699A404FF0FF317B6901FA28
:10331C0003F3D9437B680B40134318462437BD464F
:10332C0080BC704780B582B000AF78607B68013B91
:10333C00B3F1807F01D301230FE00A4A7B68013B84
:10334C0053600F214FF0FF30FFF790FF054B002229
:10335C009A60044B07221A60002318460837BD46B2
:10336C0080BD00BF10E000E080B582B000AF786097
:10337C007868FFF72DFF00BF0837BD4680BD80B5CC
:10338C0086B000AF0346B9607A60FB7300237B61A3
:10339C00FFF742FF78617A68B9687869FFF790FFA8
:1033AC00024697F90F3011461846FFF75FFF00BF32
:1033BC001837BD4680BD80B582B000AF0346FB71A7
:1033CC0097F907301846FFF735FF00BF0837BD46A1
:1033DC0080BD80B582B000AF78607868FFF7A2FF3F
:1033EC00034618460837BD4680BD000080B485B042
:1033FC0000AF78600023FB607B68002B01D10123B8
:10340C0043E07B681B681A46224B1344224AA2FBFA
:10341C0003231B099A007B681A647B681F4ADA63D2
:10342C007B68022283F821207B681B681B68FB6089
:10343C00FB6823F47F5323F03003FB607B685A68EE
:10344C007B689B681A437B68DB681A437B681B6943
:10345C001A437B685B691A437B689B691A437B68D8
:10346C00DB691343FA681343FB607B681B68FA68DB
:10347C001A607B6800229A637B68012283F8212002
:10348C007B68002283F82020002318461437BD46A1
:10349C0080BC7047F8FFFDBFCDCCCCCC0000024007
:1034AC0080B586B000AFF860B9607A603B600023ED
:1034BC00FB75FB6893F82030012B01D102234BE004
:1034CC00FB68012283F82020FB6893F82130DBB2E3
:1034DC00012B3AD1FB68022283F82120FB680022E1
:1034EC009A63FB681B681A68FB681B6822F0010270
:1034FC001A603B687A68B968F86800F037F9FB68BD
:10350C00DB6A002B08D0FB681B681A68FB681B6819
:10351C0042F00E021A600FE0FB681B681A68FB6829
:10352C001B6822F004021A60FB681B681A68FB68AF
:10353C001B6842F00A021A60FB681B681A68FB6879
:10354C001B6842F001021A6005E0FB68002283F858
:10355C0020200223FB75FB7D18461837BD4680BD25
:10356C0080B584B000AF78607B68DB6B1B68FB6058
:10357C007B681B681B68BB607B681B6C04229A40D1
:10358C00FB681340002B4FD0BB6803F00403002BE7
:10359C004AD07B681B681B6803F02003002B07D103
:1035AC007B681B681A687B681B6822F004021A602F
:1035BC007B681B68664A934229D07B681B68654A06
:1035CC00934222D07B681B68634A93421AD07B6873
:1035DC001B68624A934212D07B681B68604A934214
:1035EC000AD07B681B685F4A934202D14FF4800378
:1035FC000EE04FF080630BE04FF4802308E04FF4B3
:10360C00804305E04FF4806302E0402300E0042394
:10361C00554A53607B68DB6A002B00F094807B6812
:10362C00DB6A786898478EE07B681B6C02229A40B4
:10363C00FB681340002B56D0BB6803F00203002B31
:10364C0051D07B681B681B6803F02003002B0BD147
:10365C007B681B681A687B681B6822F00A021A6078
:10366C007B68012283F821207B681B68384A9342CF
:10367C0029D07B681B68374A934222D07B681B6831
:10368C00354A93421AD07B681B68344A934212D055
:10369C007B681B68324A93420AD07B681B68314AAC
:1036AC00934202D14FF400130EE04FF000730BE085
:1036BC004FF4003308E04FF4005305E04FF400736F
:1036CC0002E0202300E00223274A53607B6800229B
:1036DC0083F820207B689B6A002B34D07B689B6A24
:1036EC00786898472FE07B681B6C08229A40FB682F
:1036FC001340002B28D0BB6803F00803002B23D009
:10370C007B681B681A687B681B6822F00E021A60C3
:10371C007B681A6C7B68DB6B012101FA02F25A6040
:10372C007B6801229A637B68012283F821207B68E5
:10373C00002283F820207B681B6B002B04D07B6855
:10374C001B6B7868984700BF00BF1037BD4680BD23
:10375C00080002401C0002403000024044000240BD
:10376C00580002406C0002400000024080B485B05A
:10377C0000AFF860B9607A603B60FB681A6CFB685C
:10378C00DB6B012101FA02F25A60FB681B683A6894
:10379C005A60FB685B68102B08D1FB681B687A6861
:1037AC009A60FB681B68BA68DA6007E0FB681B6804
:1037BC00BA689A60FB681B687A68DA6000BF1437D5
:1037CC00BD4680BC7047000080B48BB000AF786001
:1037DC00396000237B6200233B6269E101227B6A32
:1037EC0002FA03F3FB613B681B68FA691340BB6187
:1037FC00BA69FB699A4240F058813B685B689A4A07
:10380C0093425ED0984A934275D8984A934258D0C6
:10381C00964A93426FD8964A934252D0944A934216
:10382C0069D8944A93424CD0924A934263D8924AB4
:10383C00934246D0904A93425DD8122B2AD8122B31
:10384C0059D801A252F823F0CF380008A938000843
:10385C00BB380008FD38000803390008033900089C
:10386C00033900080339000803390008033900083C
:10387C00033900080339000803390008033900082C
:10388C00033900080339000803390008B13800086F
:10389C00C5380008794A934213D02CE03B68DB68AA
:1038AC003B6229E03B68DB6804333B6224E03B6805
:1038BC00DB6808333B621FE03B68DB680C333B6220
:1038CC001AE03B689B68002B02D104233B6213E097
:1038DC003B689B68012B05D108233B627B68FA6926
:1038EC001A6109E008233B627B68FA695A6103E0BC
:1038FC0000233B6200E000BFBB69FF2B01D87B6853
:10390C0001E07B6804337B61BB69FF2B02D87B6AC7
:10391C009B0002E07B6A083B9B003B617B691A6859
:10392C000F213B6901FA03F3DB431A40396A3B6907
:10393C0001FA03F31A437B691A603B685B6803F076
:10394C008053002B00F0B1804D4B9B694C4A43F0E7
:10395C00010393614A4B9B6903F00103BB60BB6895
:10396C00484A7B6A9B08023352F82330FB607B6A1F
:10397C0003F003039B000F2202FA03F3DB43FA6804
:10398C001340FB607B68404A934213D07B683F4AEC
:10399C0093420DD07B683E4A934207D07B683D4AE8
:1039AC00934201D1032306E0042304E0022302E046
:1039BC00012300E000237A6A02F003029200934094
:1039CC00FA681343FB602F497B6A9B080233FA6841
:1039DC0041F823203B685B6803F48013002B06D06E
:1039EC002D4B9A682C49BB6913438B6006E02A4B1C
:1039FC009A68BB69DB43284913408B603B685B6862
:103A0C0003F40013002B06D0234BDA682249BB6960
:103A1C001343CB6006E0204BDA68BB69DB431E49DD
:103A2C001340CB603B685B6803F40033002B06D07B
:103A3C00194B5A681849BB6913434B6006E0164B87
:103A4C005A68BB69DB43144913404B603B685B68A5
:103A5C0003F48033002B21D00F4B1A680E49BB693D
:103A6C0013430B6021E000BF000032100000311046
:103A7C000000221000002110000012100000111094
:103A8C00001002400000014000080140000C014001
:103A9C000010014000140140000401400B4B1A6857
:103AAC00BB69DB43094913400B607B6A01337B62C2
:103ABC003B681A687B6A22FA03F3002B7FF48EAE04
:103ACC0000BF00BF2C37BD4680BC704700040140CE
:103ADC0080B483B000AF78600B467B8013467B705C
:103AEC007B78002B03D07A887B681A6103E07B8893
:103AFC001A047B681A6100BF0C37BD4680BC704746
:103B0C0080B586B000AF78607B68002B01D10123B3
:103B1C0072E27B681B6803F00103002B00F08780C6
:103B2C00924B5B6803F00C03042B0CD08F4B5B683F
:103B3C0003F00C03082B12D18C4B5B6803F480331D
:103B4C00B3F5803F0BD1894B1B6803F40033002B7A
:103B5C006CD07B685B68002B68D101234CE27B68DE
:103B6C005B68B3F5803F06D1804B1B687F4A43F4FA
:103B7C00803313602EE07B685B68002B0CD17B4B91
:103B8C001B687A4A23F480331360784B1B68774A9E
:103B9C0023F4802313601DE07B685B68B3F5A02FD2
:103BAC000CD1724B1B68714A43F4802313606F4B2A
:103BBC001B686E4A43F4803313600BE06B4B1B683D
:103BCC006A4A23F480331360684B1B68674A23F4FA
:103BDC00802313607B685B68002B13D0FFF7CAFA55
:103BEC00386108E0FFF7C6FA02463B69D31A642B2A
:103BFC0001D9032300E25D4B1B6803F40033002B57
:103C0C00F0D014E0FFF7B6FA386108E0FFF7B2FA2B
:103C1C0002463B69D31A642B01D90323ECE1534BC5
:103C2C001B6803F40033002BF0D100E000BF7B686D
:103C3C001B6803F00203002B63D04C4B5B6803F052
:103C4C000C03002B0BD0494B5B6803F00C03082BC7
:103C5C001CD1464B5B6803F48033002B16D1434BCD
:103C6C001B6803F00203002B05D07B681B69012B3A
:103C7C0001D00123C0E13D4B1B6823F0F8027B68A7
:103C8C005B69DB00394913430B603AE07B681B69C5
:103C9C00002B20D0364B01221A60FFF76BFA3861EB
:103CAC0008E0FFF767FA02463B69D31A022B01D9E9
:103CBC000323A1E12D4B1B6803F00203002BF0D072
:103CCC002A4B1B6823F0F8027B685B69DB002749F1
:103CDC0013430B6015E0264B00221A60FFF74AFADB
:103CEC00386108E0FFF746FA02463B69D31A022B0B
:103CFC0001D9032380E11D4B1B6803F00203002B49
:103D0C00F0D17B681B6803F00803002B3AD07B686A
:103D1C009B69002B19D0174B01221A60FFF72AFA66
:103D2C00386108E0FFF726FA02463B69D31A022BEA
:103D3C0001D9032360E10D4B5B6A03F00203002BF6
:103D4C00F0D0012000F09CFA1CE00A4B00221A6013
:103D5C00FFF710FA38610FE0FFF70CFA02463B69E7
:103D6C00D31A022B08D9032346E100BF00100240EE
:103D7C000000424280044242924B5B6A03F0020311
:103D8C00002BE9D17B681B6803F00403002B00F0C7
:103D9C00A6800023FB758B4BDB6903F08053002B53
:103DAC000DD1884BDB69874A43F08053D361854B37
:103DBC00DB6903F08053BB60BB680123FB75824B4E
:103DCC001B6803F48073002B18D17F4B1B687E4A51
:103DDC0043F480731360FFF7CDF9386108E0FFF707
:103DEC00C9F902463B69D31A642B01D9032303E1B9
:103DFC00754B1B6803F48073002BF0D07B68DB6879
:103E0C00012B06D16F4B1B6A6E4A43F00103136200
:103E1C002DE07B68DB68002B0CD16A4B1B6A694A6E
:103E2C0023F001031362674B1B6A664A23F00403F9
:103E3C0013621CE07B68DB68052B0CD1614B1B6AA1
:103E4C00604A43F0040313625E4B1B6A5D4A43F005
:103E5C00010313620BE05B4B1B6A5A4A23F001030C
:103E6C001362584B1B6A574A23F0040313627B6896
:103E7C00DB68002B15D0FFF77DF938610AE0FFF7FE
:103E8C0079F902463B69D31A41F28832934201D93F
:103E9C000323B1E04B4B1B6A03F00203002BEED063
:103EAC0014E0FFF767F938610AE0FFF763F902469F
:103EBC003B69D31A41F28832934201D903239BE028
:103ECC00404B1B6A03F00203002BEED1FB7D012B50
:103EDC0005D13C4BDB693B4A23F08053D3617B68B3
:103EEC00DB69002B00F08780364B5B6803F00C031A
:103EFC00082B61D07B68DB69022B46D1334B002247
:103F0C001A60FFF737F9386108E0FFF733F902461A
:103F1C003B69D31A022B01D903236DE0294B1B6893
:103F2C0003F00073002BF0D17B681B6AB3F5803F64
:103F3C0008D1244B5B6823F400327B689B682149D1
:103F4C0013434B601F4B5B6823F474127B68196A34
:103F5C007B685B6A0B431B4913434B601B4B012271
:103F6C001A60FFF707F9386108E0FFF703F902461A
:103F7C003B69D31A022B01D903233DE0114B1B687B
:103F8C0003F00073002BF0D035E0104B00221A60C8
:103F9C00FFF7F0F8386108E0FFF7ECF802463B69F0
:103FAC00D31A022B01D9032326E0064B1B6803F01E
:103FBC000073002BF0D11EE07B68DB69012B07D16D
:103FCC00012319E0001002400070004060004242E2
:103FDC000B4B5B68FB60FB6803F480327B681B6AED
:103FEC009A4206D1FB6803F470127B685B6A9A42B2
:103FFC0001D0012300E0002318461837BD4680BDD0
:10400C000010024080B584B000AF786039607B68E6
:10401C00002B01D10123D0E06A4B1B6803F007038E
:10402C003A689A4210D9674B1B6823F0070265491E
:10403C003B6813430B60634B1B6803F007033A6840
:10404C009A4201D00123B8E07B681B6803F002039D
:10405C00002B20D07B681B6803F00403002B05D0D9
:10406C00594B5B68584A43F4E06353607B681B68A8
:10407C0003F00803002B05D0534B5B68524A43F402
:10408C0060535360504B5B6823F0F0027B689B6875
:10409C004D4913434B607B681B6803F00103002BF5
:1040AC0040D07B685B68012B07D1474B1B6803F43E
:1040BC000033002B15D101237FE07B685B68022B5A
:1040CC0007D1414B1B6803F00073002B09D101236E
:1040DC0073E03D4B1B6803F00203002B01D101235D
:1040EC006BE0394B5B6823F003027B685B683649F5
:1040FC0013434B60FFF73EF8F8600AE0FFF73AF81D
:10410C000246FB68D31A41F28832934201D9032349
:10411C0053E02D4B5B6803F00C027B685B689B00E3
:10412C009A42EBD1274B1B6803F007033A689A427B
:10413C0010D2244B1B6823F0070222493B6813431F
:10414C000B60204B1B6803F007033A689A4201D0BE
:10415C00012332E07B681B6803F00403002B08D0BA
:10416C00194B5B6823F4E0627B68DB6816491343E8
:10417C004B607B681B6803F00803002B09D0124BC3
:10418C005B6823F460527B681B69DB000E491343A8
:10419C004B6000F021F802460B4B5B681B0903F0E7
:1041AC000F030A49CB5C22FA03F3094A1360094B4B
:1041BC001B681846FEF79CFF002318461037BD46B7
:1041CC0080BD00BF00200240001002405C78000857
:1041DC00240000202800002080B487B000AF00230A
:1041EC00FB600023BB6000237B6100237B6000230A
:1041FC003B611E4B5B68FB60FB6803F00C03042BFC
:10420C0002D0082B03D027E0194B3B6127E0FB6859
:10421C009B0C03F00F03174AD35C7B60FB6803F421
:10422C008033002B10D0114B5B685B0C03F0010347
:10423C00114AD35CBB607B680D4A03FB02F2BB687E
:10424C00B2FBF3F37B6104E07B680C4A02FB03F3E3
:10425C007B617B693B6102E0054B3B6100BF3B69C5
:10426C0018461C37BD4680BC704700BF001002408A
:10427C0000127A006C7800087C78000800093D0078
:10428C0080B485B000AF78600A4B1B680A4AA2FB69
:10429C0003235B0A7A6802FB03F3FB6000BFFB6835
:1042AC005A1EFA60002BF9D100BF00BF1437BD466F
:1042BC0080BC704724000020D34D621080B582B0C2
:1042CC0000AF78607B68002B01D1012376E07B681E
:1042DC005B6A002B08D17B685B68B3F5827F09D0E1
:1042EC007B680022DA6105E07B6800221A617B683A
:1042FC0000225A617B6800229A627B6893F85130E5
:10430C00DBB2002B06D17B68002283F85020786842
:10431C00FEF7D0FC7B68022283F851207B681B6877
:10432C001A687B681B6822F040021A607B685B6825
:10433C0003F482727B689B6803F404431A437B6822
:10434C00DB6803F400631A437B681B6903F0020308
:10435C001A437B685B6903F001031A437B689B6912
:10436C0003F400731A437B68DB6903F038031A43C8
:10437C007B681B6A03F0800342EA03017B689B6A3B
:10438C0003F400527B681B680A431A607B689B69C4
:10439C001A0C7B681B6802F004025A607B681B686D
:1043AC00DA697B681B6822F40062DA617B680022A0
:1043BC005A657B68012283F8512000231846083780
:1043CC00BD4680BD80B588B000AFF860B9603B6079
:1043DC001346FB80FEF7CEFEF861FB887B83FB68FF
:1043EC0093F85130DBB2012B01D002232AE1BB68D8
:1043FC00002B02D0FB88002B01D1012322E1FB68AA
:10440C0093F85030012B01D102231BE1FB680122F0
:10441C0083F85020FB68032283F85120FB680022AC
:10442C005A65FB68BA681A63FB68FA889A86FB6857
:10443C00FA88DA86FB6800229A63FB6800229A8766
:10444C00FB680022DA87FB6800225A64FB680022B2
:10445C001A64FB689B68B3F5004F0FD1FB681B68AF
:10446C001A68FB681B6822F040021A60FB681B6824
:10447C001A68FB681B6842F480421A60FB681B6870
:10448C001B6803F04003402B07D0FB681B681A68BD
:10449C00FB681B6842F040021A60FB68DB68B3F5EE
:1044AC00006F52D1FB685B68002B02D07B8B012B19
:1044BC0045D1FB681B6B1A88FB681B68DA60FB68CC
:1044CC001B6B9A1CFB681A63FB68DB8E9BB2013B6F
:1044DC009AB2FB68DA8632E0FB681B689B6803F0D3
:1044EC000203022B12D1FB681B6B1A88FB681B683A
:1044FC00DA60FB681B6B9A1CFB681A63FB68DB8E2B
:10450C009BB2013B9AB2FB68DA8618E0FEF732FEEA
:10451C000246FB69D31A3A689A4203D83B68B3F156
:10452C00FF3F02D13B68002B09D1FB68012283F8C5
:10453C005120FB68002283F85020032382E0FB68A3
:10454C00DB8E9BB2002BC7D153E0FB685B68002B62
:10455C0002D07B8B012B47D1FB681A6BFB681B6865
:10456C000C3312781A70FB681B6B5A1CFB681A63AD
:10457C00FB68DB8E9BB2013B9AB2FB68DA8633E0B8
:10458C00FB681B689B6803F00203022B13D1FB68CA
:10459C001A6BFB681B680C3312781A70FB681B6B68
:1045AC005A1CFB681A63FB68DB8E9BB2013B9AB208
:1045BC00FB68DA8618E0FEF7DDFD0246FB69D31ACC
:1045CC003A689A4203D83B68B3F1FF3F02D13B688B
:1045DC00002B09D1FB68012283F85120FB680022D3
:1045EC0083F8502003232DE0FB68DB8E9BB2002B5D
:1045FC00C6D1FA693968F86800F0F6F90346002B61
:10460C0002D0FB6820225A65FB689B68002B0AD1FC
:10461C0000237B61FB681B68DB687B61FB681B68A4
:10462C009B687B617B69FB68012283F85120FB68E6
:10463C00002283F85020FB685B6D002B01D0012316
:10464C0000E0002318462037BD4680BD80B584B0FD
:10465C0000AFF860B9601346FB80FB6893F85130EB
:10466C00DBB2012B01D0022397E0BB68002B02D0F8
:10467C00FB88002B01D101238FE0FB6893F85030AD
:10468C00012B01D1022388E0FB68012283F8502022
:10469C00FB68032283F85120FB6800225A65FB68F3
:1046AC00BA681A63FB68FA889A86FB68FA88DA8615
:1046BC00FB6800229A63FB6800225A64FB680022A4
:1046CC001A64FB6800229A87FB680022DA87FB6871
:1046DC009B68B3F5004F0FD1FB681B681A68FB6829
:1046EC001B6822F040021A60FB681B681A68FB68A2
:1046FC001B6842F480421A60FB689B6C294ADA62A0
:10470C00FB689B6C284A9A62FB689B6C274A1A636D
:10471C00FB689B6C00225A63FB68986CFB681B6BF4
:10472C001946FB681B680C331A46FB68DB8E9BB280
:10473C00FEF7B6FE0346002B0BD0FB685B6D43F017
:10474C001002FB685A65FB68002283F85020012395
:10475C0023E0FB681B681B6803F04003402B07D069
:10476C00FB681B681A68FB681B6842F040021A6001
:10477C00FB68002283F85020FB681B685A68FB68B2
:10478C001B6842F020025A60FB681B685A68FB6881
:10479C001B6842F002025A60002318461037BD46CF
:1047AC0080BD00BF87480008E1470008A348000807
:1047BC0080B483B000AF786000BF0C37BD4680BCBE
:1047CC00704780B483B000AF786000BF0C37BD4633
:1047DC0080BC704780B586B000AF78607B685B6A40
:1047EC007B61FEF7C7FC38617B681B681B6803F0B4
:1047FC002003202B3BD07B691B685A687B691B68A4
:10480C0022F020025A607B691B685A687B691B681E
:10481C0022F002025A603A696421786900F0E4F8E7
:10482C000346002B05D07B695B6D43F020027B694E
:10483C005A657B699B68002B0AD10023FB607B695E
:10484C001B68DB68FB607B691B689B68FB60FB6813
:10485C007B690022DA867B69012283F851207B690F
:10486C005B6D002B03D07869FFF7ABFF02E0786932
:10487C00FEF792F81837BD4680BD80B584B000AF06
:10488C0078607B685B6AFB60F868FFF791FF00BF9C
:10489C001037BD4680BD80B584B000AF78607B68B2
:1048AC005B6AFB60FB681B685A68FB681B6822F03C
:1048BC0003025A60FB685B6D43F01002FB685A659B
:1048CC00FB68012283F85120F868FFF77AFF00BFDC
:1048DC001037BD4680BD000080B588B000AFF860D1
:1048EC00B9603B601346FB71FEF744FC0246BB6AA1
:1048FC009B1A3A681344FB61FEF73CFCB861394BD8
:10490C001B685B011B0DFA6902FB03F37B6154E02E
:10491C003B68B3F1FF3F50D0FEF72CFC0246BB695D
:10492C00D31AFA699A4202D9FB69002B3DD1FB6874
:10493C001B685A68FB681B6822F0E0025A60FB682F
:10494C005B68B3F5827F11D1FB689B68B3F5004FB0
:10495C0004D0FB689B68B3F5806F07D1FB681B68BC
:10496C001A68FB681B6822F040021A60FB689B6A9D
:10497C00B3F5005F0FD1FB681B681A68FB681B68F6
:10498C0022F400521A60FB681B681A68FB681B68EB
:10499C0042F400521A60FB68012283F85120FB6834
:1049AC00002283F85020032317E07B69002B01D1F0
:1049BC000023FB617B69013B7B61FB681B689A6888
:1049CC00BB681340BA689A420CBF01230023DBB2C8
:1049DC001A46FB799A429BD1002318462037BD46D4
:1049EC0080BD00BF2400002080B586B002AFF86007
:1049FC00B9607A607B680093BB6801220221F86879
:104A0C00FFF76AFF0346002B07D0FB685B6D43F092
:104A1C002002FB685A65032313E07B680093BB6894
:104A2C0000228021F868FFF757FF0346002B07D0C0
:104A3C00FB685B6D43F02002FB685A65032300E0C2
:104A4C00002318461037BD4680BD0000164B10B52C
:104A5C001C68236BB3B9182000F040FA024620639F
:104A6C0020B95221114B124800F0D2F91149124BC6
:104A7C00C0E90013114B002183600B2383810120BB
:104A8C00C2E90401216B0E480B694C6958430D4A6D
:104A9C0002FB0400A3FB0232013340EB0200C1E92C
:104AAC00043020F0004010BD3C0000207E7800084F
:104ABC00957800080E33CDAB34126DE6ECDE0500B4
:104ACC002DF451582D7F954C002310B50446C0E9A8
:104ADC000033C0E90433836081814366C281836102
:104AEC00194608225C3000F016F90D4B2462636203
:104AFC000C4BA3620C4BE3620C4B23630C4B9C42A0
:104B0C0006D003F16802944202D0D0339C4205D106
:104B1C0004F15800BDE8104000F076B910BD00BF9C
:104B2C009D4C0008BF4C0008F74C00081B4D0008BA
:104B3C00D0280020024A0349034800F069B800BF9E
:104B4C0030000020255700084000002041680C4B25
:104B5C0010B59942044601D000F0DEFDA168094B66
:104B6C00994202D0204600F0D7FDE168064B9942ED
:104B7C0004D02046BDE8104000F0CEBD10BD00BFF3
:104B8C00D028002038290020A029002010B50B4B7C
:104B9C000B4C0C4A20461A6004210022FFF794FFAC
:104BAC0004F1680001220921FFF78EFF04F1D00007
:104BBC000222BDE810401221FFF786BF082A002010
:104BCC00D0280020414B0008014800F01EB900BF5E
:104BDC00112A0020014800F019B900BF112A002049
:104BEC0010B50446FFF7F0FF236A1BB1BDE8104077
:104BFC00FFF7F0BF044B2362044B1B68002BF5D16D
:104C0C00FFF7C4FFF2E700BF594B0008082A002049
:104C1C002DE9F8430746884614460026D4E9019549
:104C2C00B9F1010905D52468002CF7D13046BDE84F
:104C3C00F883AB89012B07D9B5F90E30013303D0BA
:104C4C0029463846C04706436835E9E70EB46FF08D
:104C5C00004110B500249DB01FAB02900690079147
:104C6C0004910948094953F8042B0591006802A9DD
:104C7C0001931B9400F044FA029B1C701DB0BDE81C
:104C8C00104003B0704700BF3C0000200802FFFF3B
:104C9C0010B50C46B1F90E1000F068F80028ABBF47
:104CAC00636DA3891B1823F48053ACBF6365A38188
:104CBC0010BD2DE9F0411F468B890546DB050C46DE
:104CCC00164605D502230022B1F90E1000F03CF86F
:104CDC00A389324623F48053A38128463B46B4F97A
:104CEC000E10BDE8F04100F053B810B50C46B1F908
:104CFC000E1000F029F8431CA38915BF606523F43E
:104D0C00805343F48053A38118BFA38110BDB1F924
:104D1C000E1000F009B803460244934200D17047CC
:104D2C0003F8011BF9E7000038B50023054D0446D4
:104D3C0008462B60FEF733F9431C02D12B6803B1F4
:104D4C00236038BD0C2A002038B5044608461146AD
:104D5C000022054D2A601A46FEF745F9431C02D184
:104D6C002B6803B1236038BD0C2A002038B50446EB
:104D7C00084611460022054D2A601A46FEF7D6F861
:104D8C00431C02D12B6803B1236038BD0C2A0020D0
:104D9C0038B50446084611460022054D2A601A46CD
:104DAC00FEF7E1F8431C02D12B6803B1236038BD38
:104DBC000C2A0020014B1868704700BF3C000020F3
:104DCC0070B500260C4D0D4C641BA410A64209D1E5
:104DDC0001F082FE00260A4D0A4C641BA410A64268
:104DEC0005D170BD55F8043B98470136EEE755F8F0
:104DFC00043B98470136F2E7347D0008347D000807
:104E0C00347D0008387D00087047704770470000FB
:104E1C001FB514461A46094B05461B68D8684CB199
:104E2C00074BCDE9013400912B46064900F09CFC60
:104E3C0000F0F2FC044B1C46F3E700BF3C000020E2
:104E4C00ED780008FA7800082879000838B505468E
:104E5C00002940D051F8043C0C1F002BB8BFE418BB
:104E6C0000F0E6F81C4A136833B9636014602846F6
:104E7C00BDE8384000F0E2B8A34208D920682118F8
:104E8C008B4201BF19685B6809182160EDE71A466F
:104E9C005B680BB1A342FAD911685018A0420BD130
:104EAC0020680144501883421160E0D118685B6897
:104EBC00084410605360DAE702D90C232B60D6E764
:104ECC00206821188B4201BF19685B6809182160A2
:104EDC0063605460CBE738BD182A0020024B0146B2
:104EEC00186800F025B800BF3C00002070B50F4ECC
:104EFC000C463168054611B900F062FC3060214661
:104F0C00284600F05DFC431C03D14FF0FF342046D3
:104F1C0070BDC41C24F00304A042F8D0211A28460A
:104F2C0000F04EFC0130F2D1EFE700BF142A002054
:104F3C002DE9F843CD1C25F0030508350C2D38BFA1
:104F4C000C25002D064601DBA94204D90C23336045
:104F5C000020BDE8F883DFF8D48000F069F8D8F8B9
:104F6C0000301C4644BB29463046FFF7BFFF431CAC
:104F7C00044658D1D8F800402746002F43D1002CC6
:104F8C004BD023683946304604EB030900F018FC7B
:104F9C00814542D1216830466D1A2946FFF7A6FF9C
:104FAC0001303AD023682B442360D8F800305A687B
:104FBC0062BBC8F800700FE02268521B20D40B2A89
:104FCC0017D96119A342256018BF5960636808BFDF
:104FDC00C8F8001062514B60304600F02FF804F115
:104FEC000B00231D20F00700C21A1CBF1B1AA35074
:104FFC00AFE76268A3420CBFC8F800205A60EBE729
:10500C0023466468AEE73C467F68B6E71A465B68A1
:10501C00A342FBD100235360DEE70C233046336000
:10502C0000F00CF894E70560D6E700BF182A0020C2
:10503C000148FFF7EABE00BF102A00200148FFF725
:10504C00E5BE00BF102A00202DE9F0471F468E68F0
:10505C008246BE420C4690460B682DD8B1F90C2006
:10506C0012F4906F26D06569096905EB4505A3EB31
:10507C00010905EBD5757B1C4B446D109D4238BF67
:10508C001D46530527D52946FFF752FF064660B348
:10509C004A46216900F0B2FBA38923F4906343F0E4
:1050AC008003A38126614E4426603E466561A5EBD4
:1050BC000905A560BE4200D93E46324641462068ED
:1050CC0000F064FB0020A3689B1BA360236833449F
:1050DC002360BDE8F0872A4600F0A5FB06460028B1
:1050EC00E0D150462169FFF7B1FE0C23CAF800301D
:1050FC00A3894FF0FF3043F04003A381E9E70000A0
:10510C002DE9F04F98468B8907461B060D46144631
:10511C009DB010D50B6973B94021FFF709FF2860CA
:10512C00286130B90C233B604FF0FF301DB0BDE857
:10513C00F08F40236B610023099320238DF82930D5
:10514C0030234FF00109CDF80C80DFF898818DF8F1
:10515C002A3023469A4613F8012B0AB1252AF9D195
:10516C00BAEB040B0BD05B46224629463846FFF7B8
:10517C006BFF013000F0A780099A5A4409929AF803
:10518C000030002B00F09F8000234FF0FF32CDE960
:10519C0005230AF1010A049307938DF853301A93EF
:1051AC005446052214F8011B4E4800F019FB049AD2
:1051BC00D8B9D00644BF20238DF85330110744BF13
:1051CC002B238DF853309AF800302A2B15D05446E7
:1051DC0000204FF00A0C079A214611F8013B303B96
:1051EC00092B4BD9B0B1079214E0A0EB080309FAD4
:1051FC0003F31343A2460493D2E7039B191D1B68C8
:10520C000391002BBBBF5B4242F002020793079352
:10521C00B8BF049223782E2B0AD163782A2B32D173
:10522C00039B02341A1D1B68039243EAE373059334
:10523C00DFF8B4A003225046217800F0D1FA38B13F
:10524C004022049BA0EB0A008240134301340493D8
:10525C0014F8011B062225488DF8281000F0C0FA1E
:10526C00002836D0224B1BBB039B073323F00703CC
:10527C0008330393099B334409936AE70C460120D6
:10528C000CFB0232A8E700234FF00A0C194601343C
:10529C000593204610F8012B303A092A03D9002B2C
:1052AC00C6D00591C4E7044601230CFB0121F0E7AD
:1052BC0003AB00932A4638460E4B04A9AFF300808B
:1052CC00421C0646D6D1AB895B063FF52DAF09983B
:1052DC002CE703AB00932A463846064B04A900F092
:1052EC007DF8EDE7297900082F790008337900085B
:1052FC0000000000555000082DE9F047164698466E
:10530C008A680B6907469342B8BF1346336091F81D
:10531C0043200C46DDF820900AB10133336023683A
:10532C00990642BF336802333360256815F00605D1
:10533C0006D104F1190AE36832689B1AAB422BDCE4
:10534C0094F843302268003B18BF0123920630D4F6
:10535C004146384604F14302C847013023D0236844
:10536C00226903F00603042B14BF002533684FF0A9
:10537C00000608BFE56804F11A0408BFED1A54F8DA
:10538C00123C08BF25EAE5759342C4BF9B1AED1881
:10539C00B5421AD1002008E0012352464146384656
:1053AC00C847013003D14FF0FF30BDE8F08701351D
:1053BC00C1E73020E11881F843005A1C94F84510DD
:1053CC002244023382F84310C2E7012322464146AD
:1053DC003846C8470130E6D00136D9E72DE9FF47FA
:1053EC000F7E9146782F80460C469A460C9E01F112
:1053FC00430207D8622F0AD8002F00F0D180582F13
:10540C0000F0B88004F1420684F842703AE0A7F14B
:10541C006303152BF6D801A151F823F08154000831
:10542C009554000811540008115400081154000838
:10543C001154000895540008115400081154000828
:10544C00115400081154000893550008BF5400086B
:10545C004D5500081154000811540008B5550008AA
:10546C0011540008BF5400081154000811540008CE
:10547C005555000833681A1D1B68326004F142064A
:10548C0084F8423001239CE033682068191D316098
:10549C00060601D51D6803E04506FBD5B3F900509F
:1054AC00002D03DA2D236D4284F843300A2358482B
:1054BC0011E021683368080653F8045B02D44906EE
:1054CC0048BFADB26F2F336014BF0A230823504876
:1054DC00002184F843106668002EA66005DB216865
:1054EC002E4321F0040121604BD01646B5FBF3F19D
:1054FC0003FB1157C75D06F8017D2F46BB420D46D5
:10550C00F4D9082B0BD12368DF0708D52369616810
:10551C009942DEBF302306F8013C06F1FF36921BA0
:10552C0022614B4621464046CDF800A003AAFFF766
:10553C00E3FE01304AD14FF0FF3004B0BDE8F087F4
:10554C00236843F0200323607827324884F84570A1
:10555C00236831681F0651F8045B02D45F0648BF0C
:10556C00ADB23160D90744BF43F0200323601DB1B5
:10557C001023ADE72648E9E7236823F020032360D6
:10558C00F6E71646BDE733682568181D616930607B
:10559C002E061B6801D5196002E06806FBD5198040
:1055AC00002316462361BCE7336800211A1D3260C4
:1055BC001E686268304600F013F908B1801B606009
:1055CC0063682361002384F84330AAE732464946D6
:1055DC0040462369D0470130ADD023689B0713D4D4
:1055EC00E068039B9842B8BF1846A6E701233246F1
:1055FC0049464046D04701309DD00135E3680399B8
:10560C005B1AAB42F2DCEBE7002504F11906F5E777
:10561C003A7900084B790008B1F90C20F8B5160757
:10562C0005460C4654D44B68002B02DC0B6C002B4B
:10563C0048DDE66A002E45D0002312F480522F6814
:10564C00216A2B6030D0626DA389590705D5636838
:10565C00D21A636B0BB1236CD21A00232846E66A6C
:10566C00216AB047431CA38906D129681D292BD870
:10567C00284ACA40D60727D5002262602269D9047D
:10568C00226004D5421C01D12B6803B96065616BA3
:10569C002F60B9B104F14403994202D02846FFF7B8
:1056AC00D5FB002363630DE001232846B047024677
:1056BC00501CC9D12B68002BC6D01D2B01D0162B2A
:1056CC001DD12F60002021E043F040031BB21AE0F3
:1056DC000F69002FF6D0930718BF00230E6808BF80
:1056EC004B69F61B0F608B60002EEBDD33463A46A0
:1056FC002846216AD4F828C0E047002807DCB4F912
:10570C000C3043F040034FF0FF30A381F8BD074449
:10571C00361AE9E70100402038B50B6905460C46FE
:10572C0013B90025284638BD18B1036A0BB9FFF729
:10573C0057FAB4F90C30002BF3D0626ED00704D4B6
:10574C00990502D4A06DFFF760FB28462146FFF7B0
:10575C0063FF636E0546DA07E4D4A3899B05E1D4A5
:10576C00A06DFFF753FBDDE70EB403B5014603ABA9
:10577C00054853F8042B0068019300F0A9F802B017
:10578C005DF804EB03B070473C000020884210B574
:10579C0001EB020402D98442234607D8431EA142DE
:1057AC0008D011F8012B03F8012FF8E70146024449
:1057BC008A4200D110BD13F8014D02F8014DF7E7F4
:1057CC0038B50023054D044608462B60FDF718FC40
:1057DC00431C02D12B6803B1236038BD0C2A002076
:1057EC00034610B5C9B202449342184601D10020B9
:1057FC0003E0047801338C42F6D110BD0A44914287
:10580C0000F1FF3300D1704710B511F8014B9142F4
:10581C0003F8014FF9D110BD062008B500F02CFAA1
:10582C000120FDF778FB2DE9F041074614460D46A3
:10583C0021B91146BDE8F041FFF77ABB2AB9FFF751
:10584C0005FB25462846BDE8F08100F031FA84427C
:10585C00064602D8B4EB500FF4D821463846FFF771
:10586C0067FB804608B94546ECE7B4422246294618
:10587C0028BF3246FFF7C2FF29463846FFF7E6FA43
:10588C00F1E7936810B4013B002B936007DA94693D
:10589C00A34201DB0A2902D110BC00F031B9136814
:1058AC00581C10601970084610BC7047F8B50646B5
:1058BC000F461446D518AC4201D1002007E03A46F9
:1058CC00304614F8011BFFF7DCFF431CF3D1F8BD85
:1058DC002DE9F04F0D461446984606469DB018B17A
:1058EC00036A0BB9FFF77CF96B6ED90705D4AB894A
:1058FC009A0502D4A86DFFF788FAAB891B0701D56E
:10590C002B699BB92946304600F038F970B16B6EA3
:10591C00DC0704D54FF0FF301DB0BDE8F08FAB892C
:10592C009805F7D4A86DFFF771FAF3E700230993F4
:10593C0020238DF8293030234FF00109CDF80C804D
:10594C00DFF8A8818DF82A3023469A4613F8012BEC
:10595C000AB1252AF9D1BAEB040B0BD05B462246CF
:10596C0029463046FFF7A2FF013000F0A780099AC4
:10597C005A4409929AF80030002B00F09F800023C3
:10598C004FF0FF32CDE905230AF1010A0493079386
:10599C008DF853301A935446052214F8011B5348C2
:1059AC00FFF71EFF049AD8B9D10644BF20238DF807
:1059BC005330130744BF2B238DF853309AF8003023
:1059CC002A2B15D0544600204FF00A0C079A21467A
:1059DC0011F8013B303B092B4BD9B0B1079214E0C5
:1059EC00A0EB080309FA03F31343A2460493D2E78E
:1059FC00039B191D1B680391002BBBBF5B4242F03C
:105A0C00020207930793B8BF049223782E2B0AD176
:105A1C0063782A2B32D1039B02341A1D1B68039224
:105A2C0043EAE3730593DFF8C8A0032250462178BC
:105A3C00FFF7D6FE38B14022049BA0EB0A0082404F
:105A4C0013430134049314F8011B062229488DF8E2
:105A5C002810FFF7C5FE00283FD0274B1BBB039B2C
:105A6C00073323F0070308330393099B3B44099343
:105A7C006AE70C4601200CFB0232A8E700234FF02A
:105A8C000A0C194601340593204610F8012B303AC4
:105A9C00092A03D9002BC6D00591C4E7044601237B
:105AAC000CFB0121F0E703AB00932A463046134B65
:105ABC0004A9AFF300800746781CD6D16B6ED907CA
:105ACC0005D4AB899A0502D4A86DFFF79FF9AB8971
